:020000040800F2
:100000000050002039130008A90F0008B10F0008A4
:10001000B90F0008C10F0008C90F00080000000058
:10002000000000000000000000000000D10F0008E8
:10003000DD0F000800000000E90F0008F50F0008C0
:100040008113000881130008811300088113000840
:100050008113000881130008811300088113000830
:100060008113000881130008811300088113000820
:100070008113000881130008811300088113000810
:100080008113000881130008811300088113000800
:1000900081130008811300088113000881130008F0
:1000A00081130008811300088113000881130008E0
:1000B00081130008811300088113000881130008D0
:1000C00081130008811300088113000881130008C0
:1000D0008113000801100008811300088113000833
:1000E000811300088113000881130008000000003C
:1000F0000000000000000000000000000000000000
:0C01000000000000000000005FF808F1A3
:10010C0010B5054C237833B9044B13B10448AFF345
:10011C0000800123237010BD680000200000000047
:10012C00B465000808B5034B1BB103490348AFF392
:10013C00008008BD000000006C000020B4650008C1
:10014C00034613F8012B002AFBD1181A013870470B
:10015C0080B588B000AF07F1100300221A605A6016
:10016C009A60DA602C4B9B692B4A43F01003936125
:10017C00294B9B6903F01003FB60FB68264B9B69C2
:10018C00254A43F020039361234B9B6903F0200322
:10019C00BB60BB68204B9B691F4A43F0040393610F
:1001AC001D4B9B6903F004037B607B681A4B9B69B6
:1001BC00194A43F008039361174B9B6903F008033A
:1001CC003B603B6800220121144801F0B6FC002280
:1001DC002021134801F0B1FC01233B6101237B6119
:1001EC000023BB610223FB6107F1100319460B4886
:1001FC0001F008FB20233B6101237B610023BB61E1
:10020C000223FB6107F110031946054801F0FAFAC5
:10021C0000BF2037BD4680BD0010024000100140D9
:10022C000008014080B500AF124B134A1A60114B05
:10023C00124A5A600F4B00229A600E4B0022DA6071
:10024C000C4B4FF480421A610A4B00225A61094B45
:10025C0000229A61074B0022DA61064B00221A62D7
:10026C00044801F083FC0346002B01D000F0EBFDA9
:10027C0000BF80BD8400002000540040801A06009E
:10028C0080B58AB000AF786007F1140300221A60C1
:10029C005A609A60DA607B681B681D4A934232D1BF
:1002AC001C4B9B691B4A43F008039361194B9B69D8
:1002BC0003F008033B613B694FF440737B611223ED
:1002CC00BB6103233B6207F114031946124801F08A
:1002DC0099FA124B5B687B627B6A43F0E0637B624A
:1002EC007B6A43F002037B620C4A7B6A5360094BC6
:1002FC00DB69084A43F40013D361064BDB6903F452
:10030C000013FB60FB6800BF2837BD4680BD00BFF3
:10031C000054004000100240000C0140000001405D
:10032C0080B500AF322001F089F8302000F036F8AB
:10033C00052001F083F8302000F030F8012001F0A6
:10034C007DF8302000F02AF80A2001F077F8202000
:10035C0000F024F80A2001F071F8282000F01EF8B3
:10036C00012001F06BF8082000F018F8012001F0D2
:10037C0065F8012000F012F8022001F05FF8062069
:10038C0000F00CF8012001F059F80C2000F006F8F0
:10039C00012001F053F800BF80BD000080B586B08D
:1003AC0002AF0346FB71FB7923F00F03FB73FB7960
:1003BC001B01BB73FB7B43F00C03DBB23B72FB7B7F
:1003CC0043F00803DBB27B72BB7B43F00C03DBB264
:1003DC00BB72BB7B43F00803DBB2FB7207F1080274
:1003EC004FF0FF33009304234E21064801F002FD29
:1003FC000346002B01D0012300E0002318461037E0
:10040C00BD4680BD8400002080B586B002AF034697
:10041C00FB71FB7923F00F03FB73FB791B01BB739F
:10042C00FB7B43F00D03DBB23B72FB7B43F0090318
:10043C00DBB27B72BB7B43F00D03DBB2BB72BB7BCD
:10044C0043F00903DBB2FB7207F108024FF0FF33F4
:10045C00009304234E21064801F0CCFC0346002BEC
:10046C0001D0012300E0002318461037BD4680BDA3
:10047C008400002080B582B000AF786006E07B6815
:10048C005A1C7A601B781846FFF7BEFF7B681B78F6
:10049C00002BF4D100BF00BF0837BD4680BD80B52E
:1004AC0084B000AF0346FB71FB793B7300237B7375
:1004BC0007F10C031846FFF7DDFF00BF1037BD46F0
:1004CC0080BD000080B584B000AF78607B681B688D
:1004DC00FB60FB681B0C1A460221074803F012FB59
:1004EC00FB689BB21A460321034803F00BFB00BFC9
:1004FC001037BD4680BD00BF4401002080B584B0DC
:10050C0000AF78600121154803F016FB034643F257
:10051C00F22293420CD07B6806221A707B6801226F
:10052C005A707B6801229A707B680022DA7011E0A5
:10053C0003210A4803F000FB0346FB600221074835
:10054C0003F0FAFA03461A04FB681343FB60FA68DB
:10055C007B681A601037BD4680BD00BF4401002087
:10056C0080B584B000AF0F4A3B1D92E8030083E8CE
:10057C0003004020FFF712FF0023FB6009E03A1D47
:10058C00FB6813441B781846FFF789FFFB6801339F
:10059C00FB60FB68072BF2DD00BF00BF1037BD46C8
:1005AC0080BD00BFCC65000880B58EB004AF78600C
:1005BC0007F1200107F1240207F11003039307F15F
:1005CC001403029307F11803019307F11C03009322
:1005DC000B466B49786804F059FC0346062B40F037
:1005EC00CA8007F10C0300210A461A800A469A7049
:1005FC000023BB60BB69634A82FB03129210DB17BA
:10060C00D31A5BB21B0158B2BA695E4B83FB02135F
:10061C009910D317C91A0B469B000B445B00D11AD7
:10062C004BB203435BB2DBB23B737B69554A82FB33
:10063C0003129210DB17D31A5BB21B0158B27A6902
:10064C00504B83FB02139910D317C91A0B469B000E
:10065C000B445B00D11A4BB203435BB2DBB27B732E
:10066C003B69484A82FB03129210DB17D31A5BB228
:10067C001B0158B23A69434B83FB02139910D317F1
:10068C00C91A0B469B000B445B00D11A4BB20343B7
:10069C005BB2DBB2BB73FB693A4A82FB031292106A
:1006AC00DB17D31A5BB21B0158B2FA69354B83FBCB
:1006BC0002139910D317C91A0B469B000B445B000D
:1006CC00D11A4BB203435BB2DBB2BB723B6A2D4A0D
:1006DC0082FB03129210DB17D31A5BB21B0158B2C8
:1006EC003A6A284B83FB02139910D317C91A0B468D
:1006FC009B000B445B00D11A4BB203435BB2DBB2E1
:10070C007B727B6AA3F5FA631E4A82FB031292107A
:10071C00DB17D31A5BB21B0158B27B6AA3F5FA62E2
:10072C00184B83FB02139910D317C91A0B469B0065
:10073C000B445B00D11A4BB203435BB2DBB2FB72CE
:10074C0007F10C03012219460F4802F0BFFC07F118
:10075C000803012219460C4802F028FE07F1080391
:10076C001846FFF7AFFE00F0CDFB43F2F222012159
:10077C00054803F0C7F900BF2837BD4680BD00BF50
:10078C00D4650008676666664401002080B582B0B7
:10079C0000AF78607B681B68154A934224D1154BD7
:1007AC001B780A2B0CD1144B1B781A46134B0021C7
:1007BC0099541248FFF7F8FE0F4B00221A700EE006
:1007CC000D4B1B78262B0AD80B4B1B785A1CD1B21D
:1007DC00094A11701A46074B1978084B9954012293
:1007EC000449074803F0D8FC00BF0837BD4680BD5C
:1007FC0000380140D800002004010020DC0000205B
:10080C00A401002080B483B000AF0346FB71FB79D8
:10081C00062B1FD801A252F823F000BF5D08000878
:10082C0045080008490800084D0800085108000850
:10083C005508000859080008094B0CE0094B0AE060
:10084C00094B08E0094B06E0094B04E0094B02E0B8
:10085C00094B00E0094B18460C37BD4680BC70476D
:10086C00486600084C66000850660008546600088C
:10087C00586600085C66000860660008646600083C
:10088C00F0B585B002AF3B1D01221946384802F085
:10089C00B5FC3B4601221946354802F03DFE3B793A
:1008AC001B09DBB21A4613469B0013445B001A4625
:1008BC003B7903F00F03D1187B791B09DBB21A4685
:1008CC0013469B0013445B001A467B7903F00F031D
:1008DC00D018BB791B09DBB21A4613469B00134494
:1008EC005B001A46BB7903F00F031344214A1268CC
:1008FC000192009303460A461F49204804F0A4FACB
:10090C00BB781B09DBB21A4613469B0013445B00F1
:10091C001A46BB7803F00F03D5187B781B09DBB2A2
:10092C001A4613469B0013445B001A467B7803F06F
:10093C000F03D618FB781B09DBB21A4613469B0033
:10094C0013445B001A46FB7803F00F03D4183B7872
:10095C001846FFF757FF03460193009433462A4687
:10096C000749084804F070FA00BF0C37BD46F0BDCB
:10097C0044010020300100206866000808010020B6
:10098C00806600081801002080B500AF8020FFF7BA
:10099C0005FD0848FFF76EFD0020FFF780FD4320A2
:1009AC00FFF77DFDC020FFF7F9FC0348FFF762FD60
:1009BC0000BF80BD080100201801002080B582B066
:1009CC0000AF3B1D012219460B4802F0A5FD3B1D53
:1009DC0004220A49184604F05FFB0346002B06D09C
:1009EC003B1D1846FFF76EFD044A7B68136000BF81
:1009FC000837BD4680BD00BF4401002038010020EF
:100A0C0080B483B000AF0346FB80084B1B68002208
:100A1C005A6200BF054B1B685A6AFB889A42F9D38D
:100A2C0000BF00BF0C37BD4680BC70475C01002086
:100A3C0080B586B000AF78600B467B8007F1080369
:100A4C0000221A605A609A60DA607B88BB600123CE
:100A5C00FB6002237B6107F108031946786800F0FC
:100A6C00D1FE00BF1837BD4680BD80B586B000AF43
:100A7C0078600B467B8007F1080300221A605A60ED
:100A8C009A60DA607B88BB600023FB6000233B61CB
:100A9C0007F108031946786800F0B4FE00BF183758
:100AAC00BD4680BD80B582B000AF0023FB71012133
:100ABC002348FFF7BDFF00220121214801F03DF83A
:100ACC00122000F0BBFC012201211D4801F035F879
:100ADC001420FFF795FF01211948FFF7C6FF2820C6
:100AEC00FFF78EFF0121164801F010F80346002B8A
:100AFC000ED15020FFF784FF0121114801F006F8B8
:100B0C000346002B02D00123FB7101E0FF23FB7194
:100B1C000023BB8005E00120FFF772FFBB88013387
:100B2C00BB800121064800F0F1FF0346002B02D0E8
:100B3C00BB88632BEFD9FB7918460837BD4680BDBF
:100B4C000010014080B582B000AF0023BB7137E0CC
:100B5C0000BF01211E4800F0D9FF0346002BF8D03E
:100B6C002820FFF74DFF0121194800F0CFFF034665
:100B7C00002B0ED1BB79C3F10703012202FA03F358
:100B8C005BB2DB435AB297F9073013405BB2FB718F
:100B9C0013E0BB79C3F10703012202FA03F35AB243
:100BAC0097F9073013435BB2FB7100BF0121084872
:100BBC0000F0ACFF0346002BF8D1BB790133BB71BD
:100BCC00BB79072BC4D9FB7918460837BD4680BDC5
:100BDC000010014080B582B000AF00237B603B1D4C
:100BEC001846FFF78BFC3B1D01221946044802F006
:100BFC00DDFB044A7B68136000BF0837BD4680BD2F
:100C0C00440100203801002080B500AF00F0B4FB97
:100C1C0000F0BCF8FFF79CFAFFF704FB00F01AF9A0
:100C2C0000F006FB00F096FAFFF77AFBFFF798FC52
:100C3C0001224549454803F0AFFA0121444802F02E
:100C4C007BFF034643F2F222934209D0414804F061
:100C5C00F3F843F2F22201213D4802F053FF09E080
:100C6C003D4804F0E9F8FFF7B5FF01223B4938484D
:100C7C0002F052FC3A4802F0CBFF00F0D5FB0246E2
:100C8C00384B1B68D31AB3F5FA6F47D300F0CCFB83
:100C9C000346344A1360FFF705FF03461A46324BEE
:100CAC001A70314B1B78012B38D1FFF74BFF0346E1
:100CBC001A462E4B1A70FFF745FF03461A462C4B6B
:100CCC001A70FFF73FFF03461A462A4B1A70FFF7BC
:100CDC0039FF03461A46284B1A70FFF733FF0346B9
:100CEC001A46264B1A80254B1B8819461F4B1B781E
:100CFC001A461F4B1B7813441E4A127813441E4A83
:100D0C0012781344994209D1184B1B781A461C4B84
:100D1C001A60184B1B781A461A4B1A6000F084FBA9
:100D2C000246194B1B68D31AB3F57A7FA5D300F092
:100D3C007BFB0346144A1360FFF740FEFFF7A0FD50
:100D4C00FFF722FE99E700BFD8000020A401002085
:100D5C0044010020A4660008B46600083801002095
:100D6C005C0100203C0100202E0100202801002005
:100D7C00290100202A0100202B0100202C01002039
:100D8C0034010020300100204001002080B594B0D7
:100D9C0000AF07F1280328220021184604F08CF933
:100DAC0007F1140300221A605A609A60DA601A6123
:100DBC003B1D00221A605A609A60DA600523BB6200
:100DCC004FF48033FB6200233B6301237B630123DD
:100DDC00BB6302237B644FF48033BB644FF4E0139A
:100DEC00FB6407F12803184601F068FB0346002B4F
:100DFC0001D000F028F80F237B610223BB61002394
:100E0C00FB614FF480633B6200237B6207F11403A8
:100E1C000221184601F0D4FD0346002B01D000F04E
:100E2C0012F801237B604FF48073BB603B1D1846A6
:100E3C0001F054FF0346002B01D000F004F800BF72
:100E4C005037BD4680BD80B400AF72B600BF00BF46
:100E5C00FDE7000080B582B000AF3B1D00210A46C3
:100E6C001A800A469A7000233B60124B124A1A6091
:100E7C00104B4FF0FF325A600E4B4FF480729A6059
:100E8C000C4802F097F80346002B01D0FFF7DBFF6C
:100E9C0023233B7159237B715923BB7101233B7075
:100EAC0001237B700123BB700023FB7000BF08374C
:100EBC00BD4680BD440100200028004080B584B0B0
:100ECC0000AF78607B681B680B4A934210D101F02D
:100EDC00E9FA0A4BDB69094A43F00063D361074B1B
:100EEC00DB6903F00063FB60FB68054B01221A60B1
:100EFC0000BF1037BD4680BD0028004000100240E6
:100F0C003C04424280B582B000AF094802F085FB38
:100F1C000346084AA2FB03231B0C7B607A680A2158
:100F2C00034802F0EFFD00BF0837BD4680BD00BF8F
:100F3C004401002007452EC280B485B000AF154B8C
:100F4C009B69144A43F001039361124B9B6903F0B4
:100F5C000103BB60BB680F4BDB690E4A43F0805347
:100F6C00D3610C4BDB6903F080537B607B680A4BCD
:100F7C005B68FB60FB6823F0E063FB60FB6843F09D
:100F8C000073FB60044AFB68536000BF1437BD4616
:100F9C0080BC7047001002400000014080B400AFDC
:100FAC0000BFFDE780B400AF00BFFDE780B400AF29
:100FBC0000BFFDE780B400AF00BFFDE780B400AF19
:100FCC0000BFFDE780B400AF00BFBD4680BC7047DA
:100FDC0080B400AF00BFBD4680BC704780B400AF8A
:100FEC0000BFBD4680BC704780B500AF00F00AFA68
:100FFC0000BF80BD80B500AF024803F0F3F800BF1E
:10100C0080BD00BFA401002080B586B000AFF860A1
:10101C00B9607A6000237B610AE0AFF3008001467F
:10102C00BB685A1CBA60CAB21A707B6901337B6107
:10103C007A697B689A42F0DB7B6818461837BD46A4
:10104C0080BD80B586B000AFF860B9607A600023CF
:10105C007B6109E0BB685A1CBA601B781846AFF379
:10106C0000807B6901337B617A697B689A42F1DB92
:10107C007B6818461837BD4680BD80B483B000AF7E
:10108C0078604FF0FF3318460C37BD4680BC704774
:10109C0080B483B000AF786039603B684FF4005285
:1010AC005A60002318460C37BD4680BC704780B48C
:1010BC0083B000AF7860012318460C37BD4680BC66
:1010CC00704780B485B000AFF860B9607A600023D7
:1010DC0018461437BD4680BC7047000080B586B0FA
:1010EC0000AF7860144A154BD31A7B617B693B6166
:1010FC00134B1B68002B02D1114B124A1A60104B78
:10110C001A687B6813443A699A4207D204F022F8B1
:10111C0003460C221A604FF0FF3309E0084B1B68A2
:10112C00FB60074B1A687B681344054A1360FB6825
:10113C0018461837BD4680BD005000200004000042
:10114C00580100204003002080B400AF00BFBD4612
:10115C0080BC704780B586B000AF07F10803002251
:10116C001A605A609A60DA603B4600221A605A6034
:10117C001E4B1F4A1A601D4B47225A601B4B002204
:10118C009A601A4B4FF6FF72DA60184B00221A6104
:10119C00164B00225A61154B00229A61134802F03B
:1011AC00E7FC0346002B01D0FFF74DFE4FF48053B4
:1011BC00BB6007F1080319460C4802F073FD0346A7
:1011CC00002B01D0FFF73FFE00233B6000237B6028
:1011DC003B461946054802F031FF0346002B01D06F
:1011EC00FFF731FE00BF1837BD4680BD5C01002003
:1011FC00002C014080B485B000AF78607B681B6820
:10120C00094A93420BD1094B9B69084A43F400638A
:10121C009361064B9B6903F40063FB60FB6800BFA2
:10122C001437BD4680BC7047002C014000100240B2
:10123C0080B500AF114B124A1A60104B4FF4E132DB
:10124C005A600E4B00229A600C4B0022DA600B4B5A
:10125C0000221A61094B0C225A61084B00229A6138
:10126C00064B0022DA61054802F046FF0346002BCC
:10127C0001D0FFF7E8FD00BF80BD00BFA401002036
:10128C000038014080B588B000AF786007F11003DA
:10129C0000221A605A609A60DA607B681B68204AE8
:1012AC00934239D11F4B9B691E4A43F4804393618F
:1012BC001C4B9B6903F48043FB60FB68194B9B69D7
:1012CC00184A43F004039361164B9B6903F0040323
:1012DC00BB60BB684FF400733B6102237B6103234B
:1012EC00FB6107F1100319460F4800F08BFA4FF41D
:1012FC0080633B6100237B610023BB6107F110031A
:10130C001946094800F07EFA00220021252000F041
:10131C0090F9252000F0A9F900BF2037BD4680BD0B
:10132C00003801400010024000080140FFF70CFF9C
:10133C000B480C490C4A002302E0D458C450043327
:10134C00C4188C42F9D3094A094C002301E01360FC
:10135C000432A242FBD303F003FFFFF755FC7047A6
:10136C000000002068000020806800086800002051
:10137C003C030020FEE7000080B500AF084B1B6863
:10138C00074A43F010031360032000F047F90020D4
:10139C0000F008F8FFF7D0FD0023184680BD00BF11
:1013AC000020024080B582B000AF7860124B1A6802
:1013BC00124B1B7819464FF47A73B3FBF1F3B2FB63
:1013CC00F3F3184600F05FF90346002B01D001231C
:1013DC000EE07B680F2B0AD8002279684FF0FF30A3
:1013EC0000F027F9064A7B681360002300E0012314
:1013FC0018460837BD4680BD0000002008000020BC
:10140C000400002080B400AF054B1B781A46054B36
:10141C001B681344034A136000BFBD4680BC704771
:10142C0008000020EC01002080B400AF024B1B68C8
:10143C001846BD4680BC7047EC01002080B584B0D6
:10144C0000AF7860FFF7F0FFB8607B68FB60FB686B
:10145C00B3F1FF3F05D00A4B1B781A46FB681344C7
:10146C00FB6000BFFFF7E0FF0246BB68D31AFA68C7
:10147C009A42F7D800BF00BF1037BD4680BD00BFF1
:10148C000800002080B485B000AF78607B6803F062
:10149C000703FB600C4BDB68BB60BA684FF6FF03BD
:1014AC001340BB60FB681A02BB68134343F0BF6375
:1014BC0043F40033BB60044ABB68D36000BF1437ED
:1014CC00BD4680BC704700BF00ED00E080B400AFAB
:1014DC00044BDB681B0A03F007031846BD4680BCAF
:1014EC00704700BF00ED00E080B483B000AF03464E
:1014FC00FB7197F90730002B0BDBFB7903F01F0214
:10150C00064997F907305B09012000FA02F241F80D
:10151C00232000BF0C37BD4680BC704700E100E0C3
:10152C0080B483B000AF03463960FB7197F9073084
:10153C00002B0ADB3B68DAB20C4997F90730120131
:10154C00D2B20B4483F800230AE03B68DAB20849B4
:10155C00FB7903F00F03043B1201D2B20B441A7651
:10156C0000BF0C37BD4680BC704700BF00E100E0F7
:10157C0000ED00E080B489B000AFF860B9607A602B
:10158C00FB6803F00703FB61FB69C3F10703042B42
:10159C0028BF0423BB61FB690433062B02D9FB690A
:1015AC00033B00E000237B614FF0FF32BB6902FA82
:1015BC0003F3DA43BB681A407B699A404FF0FF3162
:1015CC007B6901FA03F3D9437B680B40134318463C
:1015DC002437BD4680BC704780B582B000AF7860C0
:1015EC007B68013BB3F1807F01D301230FE00A4AF2
:1015FC007B68013B53600F214FF0FF30FFF790FFEA
:10160C00054B00229A60044B07221A6000231846EF
:10161C000837BD4680BD00BF10E000E080B582B049
:10162C0000AF78607868FFF72DFF00BF0837BD4624
:10163C0080BD80B586B000AF0346B9607A60FB739D
:10164C0000237B61FFF742FF78617A68B96878699B
:10165C00FFF790FF024697F90F3011461846FFF737
:10166C005FFF00BF1837BD4680BD80B582B000AFAC
:10167C000346FB7197F907301846FFF735FF00BF9B
:10168C000837BD4680BD80B582B000AF7860786801
:10169C00FFF7A2FF034618460837BD4680BD80B44D
:1016AC0085B000AF78600023FB737B6893F8213022
:1016BC00DBB2022B08D07B6804229A637B68002281
:1016CC0083F82020012320E07B681B681A687B6864
:1016DC001B6822F00E021A607B681B681A687B6814
:1016EC001B6822F001021A607B681A6C7B68DB6B4A
:1016FC00012101FA02F25A607B68012283F8212051
:10170C007B68002283F82020FB7B18461437BD46EB
:10171C0080BC704780B584B000AF78600023FB7349
:10172C007B6893F82130DBB2022B05D07B68042256
:10173C009A630123FB7351E07B681B681A687B6812
:10174C001B6822F00E021A607B681B681A687B68A3
:10175C001B6822F001021A607B681B68224A9342C4
:10176C0029D07B681B68214A934222D07B681B6876
:10177C001F4A93421AD07B681B681E4A934212D0B0
:10178C007B681B681C4A93420AD07B681B681B4A07
:10179C00934202D14FF480130EE04FF080730BE0B4
:1017AC004FF4803308E04FF4805305E04FF480731E
:1017BC0002E0102300E00123114A53607B680122F0
:1017CC0083F821207B68002283F820207B685B6BE8
:1017DC00002B03D07B685B6B78689847FB7B1846C3
:1017EC001037BD4680BD00BF080002401C000240FF
:1017FC003000024044000240580002406C0002409D
:10180C000000024080B48BB000AF786039600023D8
:10181C007B6200233B6269E101227B6A02FA03F3DB
:10182C00FB613B681B68FA691340BB61BA69FB69D1
:10183C009A4240F058813B685B689A4A93425ED06A
:10184C00984A934275D8984A934258D0964A9342F4
:10185C006FD8964A934252D0944A934269D8944A8C
:10186C0093424CD0924A934263D8924A934246D0C8
:10187C00904A93425DD8122B2AD8122B59D801A228
:10188C0052F823F00B190008E5180008F7180008A7
:10189C00391900083F1900083F1900083F190008C2
:1018AC003F1900083F1900083F1900083F190008AC
:1018BC003F1900083F1900083F1900083F1900089C
:1018CC003F1900083F190008ED180008011900081D
:1018DC00794A934213D02CE03B68DB683B6229E0E9
:1018EC003B68DB6804333B6224E03B68DB6808330D
:1018FC003B621FE03B68DB680C333B621AE03B68E1
:10190C009B68002B02D104233B6213E03B689B686D
:10191C00012B05D108233B627B68FA691A6109E047
:10192C0008233B627B68FA695A6103E000233B623F
:10193C0000E000BFBB69FF2B01D87B6801E07B682E
:10194C0004337B61BB69FF2B02D87B6A9B0002E0EE
:10195C007B6A083B9B003B617B691A680F213B69E2
:10196C0001FA03F3DB431A40396A3B6901FA03F3CA
:10197C001A437B691A603B685B6803F08053002B49
:10198C0000F0B1804D4B9B694C4A43F001039361CD
:10199C004A4B9B6903F00103BB60BB68484A7B6AF6
:1019AC009B08023352F82330FB607B6A03F003037D
:1019BC009B000F2202FA03F3DB43FA681340FB602F
:1019CC007B68404A934213D07B683F4A93420DD0C8
:1019DC007B683E4A934207D07B683D4A934201D1D3
:1019EC00032306E0042304E0022302E0012300E0C9
:1019FC0000237A6A02F0030292009340FA681343C0
:101A0C00FB602F497B6A9B080233FA6841F823205C
:101A1C003B685B6803F48013002B06D02D4B9A684F
:101A2C002C49BB6913438B6006E02A4B9A68BB694F
:101A3C00DB43284913408B603B685B6803F400135D
:101A4C00002B06D0234BDA682249BB691343CB60C9
:101A5C0006E0204BDA68BB69DB431E491340CB60C0
:101A6C003B685B6803F40033002B06D0194B5A68B3
:101A7C001849BB6913434B6006E0164B5A68BB69A7
:101A8C00DB43144913404B603B685B6803F48033C1
:101A9C00002B21D00F4B1A680E49BB6913430B6006
:101AAC0021E000BF000032100000311000002210B5
:101ABC000000211000001210000011100010024054
:101ACC000000014000080140000C014000100140E2
:101ADC0000140140000401400B4B1A68BB69DB4346
:101AEC00094913400B607B6A01337B623B681A68BF
:101AFC007B6A22FA03F3002B7FF48EAE00BF00BF8B
:101B0C002C37BD4680BC70470004014080B485B0C2
:101B1C0000AF78600B467B807B689A687B881340AB
:101B2C00002B02D00123FB7301E00023FB73FB7B32
:101B3C0018461437BD4680BC704780B483B000AFE4
:101B4C0078600B467B8013467B707B78002B03D030
:101B5C007A887B681A6103E07B881A047B681A61B7
:101B6C0000BF0C37BD4680BC7047000080B584B008
:101B7C0000AF78607B68002B01D101232BE17B68DF
:101B8C0093F83D30DBB2002B06D17B68002283F842
:101B9C003C207868FEF774FB7B68242283F83D2098
:101BAC007B681B681A687B681B6822F001021A604C
:101BBC007B681B681A687B681B6842F400421A60D9
:101BCC007B681B681A687B681B6822F400421A60E9
:101BDC0001F03EF8F8607B685B68814A934207D855
:101BEC00FB68804A934294BF01230023DBB206E0DA
:101BFC00FB687D4A934294BF01230023DBB2002B88
:101C0C0001D00123E7E0FB68784AA2FB03239B0C7D
:101C1C00BB607B681B685B6823F03F017B681B68BB
:101C2C00BA680A435A607B681B681B6A23F03F0141
:101C3C007B685B686A4A934202D8BB68013309E04F
:101C4C00BB684FF4967202FB03F3694AA2FB0323B1
:101C5C009B0901337A6812680B4313627B681B681B
:101C6C00DB6923F44F4222F0FF027B685B685C491E
:101C7C008B4219D8FB68591E7B685B685B00B1FB13
:101C8C00F3F3591C40F6FC730B40002B0AD0FB6895
:101C9C00591E7B685B685B00B1FBF3F30133C3F344
:101CAC000B0351E004234FE07B689B68002B11D1A0
:101CBC00FB68581E7B6859680B465B000B44B0FBF5
:101CCC00F3F30133C3F30B03002B0CBF01230023ED
:101CDC00DBB212E0FB68581E7B6859680B469B0010
:101CEC000B4499000B44B0FBF3F30133C3F30B0328
:101CFC00002B0CBF01230023DBB2002B01D00123EE
:101D0C0022E07B689B68002B0ED1FB68581E7B6819
:101D1C0059680B465B000B44B0FBF3F30133C3F380
:101D2C000B0343F400430FE0FB68581E7B685968B3
:101D3C000B469B000B4499000B44B0FBF3F30133AF
:101D4C00C3F30B0343F44043796809681343CB6135
:101D5C007B681B681B6823F0C0017B68DA697B68B1
:101D6C001B6A1A437B681B680A431A607B681B68F2
:101D7C009B6823F4034323F0FF037A6811697A68A4
:101D8C00D26811437A6812680B4393607B681B68B6
:101D9C00DB6823F0FF017B685A697B689B691A43F7
:101DAC007B681B680A43DA607B681B681A687B686F
:101DBC001B6842F001021A607B6800221A647B687F
:101DCC00202283F83D207B6800221A637B68002266
:101DDC0083F83E20002318461037BD4680BD00BF57
:101DEC00A08601007F841E00FF083D0083DE1B439C
:101DFC00D34D621080B588B002AFF8607A601A4695
:101E0C000B467B8113463B81FFF70EFB7861FB6829
:101E1C0093F83D30DBB2202B40F0E0807B690093DF
:101E2C00192301227049F86800F064F90346002B6D
:101E3C0001D00223D3E0FB6893F83C30012B01D195
:101E4C000223CCE0FB68012283F83C20FB681B6872
:101E5C001B6803F00103012B07D0FB681B681A6891
:101E6C00FB681B6842F001021A60FB681B681A6869
:101E7C00FB681B6822F400621A60FB68212283F85D
:101E8C003D20FB68102283F83E20FB6800221A6478
:101E9C00FB687A685A62FB683A895A85FB685B8DE5
:101EAC009AB2FB681A85FB68504ADA6279897B69B9
:101EBC003A6AF86800F09CF80346002B01D0012325
:101ECC008DE000233B61FB681B685B693B61FB6831
:101EDC001B689B693B613B6966E07A69396AF86803
:101EEC0000F022FA0346002B0DD0FB681B6C042B70
:101EFC0007D1FB681B681A68FB681B6842F4007208
:101F0C001A6001236BE0FB685B6A1A78FB681B683C
:101F1C001A61FB685B6A5A1CFB685A62FB685B8D32
:101F2C009BB2013B9AB2FB685A85FB681B8D013B47
:101F3C009AB2FB681A85FB681B685B6903F00403A3
:101F4C00042B1BD1FB681B8D002B17D0FB685B6A25
:101F5C001A78FB681B681A61FB685B6A5A1CFB6881
:101F6C005A62FB685B8D9BB2013B9AB2FB685A8547
:101F7C00FB681B8D013B9AB2FB681A857A69396A3A
:101F8C00F86800F019FA0346002B0DD0FB681B6CA7
:101F9C00042B07D1FB681B681A68FB681B6842F4AA
:101FAC0000721A6001231AE0FB681B8D002B94D180
:101FBC00FB681B681A68FB681B6842F400721A60A5
:101FCC00FB68202283F83D20FB68002283F83E202A
:101FDC00FB68002283F83C20002300E00223184613
:101FEC001837BD4680BD00BF020010000000FFFF87
:101FFC0080B588B002AFF8607A603B600B467B819D
:10200C00FB68DB6A7B617B69082B06D07B69012B43
:10201C0003D07B6913F5803F08D1FB681B681A68F5
:10202C00FB681B6842F480721A600BE0FB681B6B48
:10203C00122B07D1FB681B681A68FB681B6842F4FB
:10204C0080721A603B6800937B6800224FF001118C
:10205C00F86800F04FF80346002B0DD0FB681B68A6
:10206C001B6803F48073B3F5807F03D1FB684FF4D6
:10207C0000721A64032335E0FB681B69B3F5804FCB
:10208C0008D17B89DBB21A46FB681B6802F0FE02A2
:10209C001A611BE07B89DB11DBB203F00603DBB2B8
:1020AC0063F00F03DAB2FB681B681A613B687A684D
:1020BC000E49F86800F098F80346002B01D0012374
:1020CC0010E07B89DAB2FB681B681A613B687A689E
:1020DC000749F86800F088F80346002B01D001236B
:1020EC0000E0002318461837BD4680BD08000100EB
:1020FC000200010080B584B000AFF860B9603B60AD
:10210C001346FB7148E03B68B3F1FF3F44D0FFF747
:10211C008BF90246BB69D31A3A689A4202D33B68E0
:10212C00002B39D1BB681B0CDBB2012B0DD1FB682A
:10213C001B685B69DA43BB6813409BB2002B0CBF76
:10214C0001230023DBB21A460CE0FB681B689B6979
:10215C00DA43BB6813409BB2002B0CBF0123002356
:10216C00DBB21A46FB799A4216D1FB6800221A633D
:10217C00FB68202283F83D20FB68002283F83E2078
:10218C00FB681B6C43F02002FB681A64FB6800229E
:10219C0083F83C20012323E0BB681B0CDBB2012B32
:1021AC000DD1FB681B685B69DA43BB6813409BB2BB
:1021BC00002B0CBF01230023DBB21A460CE0FB689A
:1021CC001B689B69DA43BB6813409BB2002B0CBFA6
:1021DC0001230023DBB21A46FB799A4293D00023E9
:1021EC0018461037BD4680BD80B584B000AFF8608E
:1021FC00B9607A603B6071E0FB681B685B6903F453
:10220C008063B3F5806F23D1FB681B681A68FB6889
:10221C001B6842F400721A60FB681B686FF48062E2
:10222C005A61FB6800221A63FB68202283F83D2068
:10223C00FB68002283F83E20FB681B6C43F0040211
:10224C00FB681A64FB68002283F83C20012367E0DA
:10225C007B68B3F1FF3F41D0FFF7E6F802463B68DD
:10226C00D31A7A689A4202D37B68002B36D1BB68AA
:10227C001B0CDBB2012B0CD1FB681B685B69DA43CE
:10228C00BB6813409BB2002B14BF01230023DBB2AD
:10229C000BE0FB681B689B69DA43BB6813409BB27D
:1022AC00002B14BF01230023DBB2002B16D0FB68DC
:1022BC0000221A63FB68202283F83D20FB68002271
:1022CC0083F83E20FB681B6C43F02002FB681A6409
:1022DC00FB68002283F83C20012321E0BB681B0C27
:1022EC00DBB2012B0CD1FB681B685B69DA43BB6862
:1022FC0013409BB2002B14BF01230023DBB20BE075
:10230C00FB681B689B69DA43BB6813409BB2002BCC
:10231C0014BF01230023DBB2002B7FF46DAF00232D
:10232C0018461037BD4680BD80B584B000AFF8604C
:10233C00B9607A6034E0F86800F086F80346002B48
:10234C0001D0012334E0BB68B3F1FF3F28D0FFF785
:10235C006BF802467B68D31ABA689A4202D3BB6800
:10236C00002B1DD1FB681B685B6903F08003802B7D
:10237C0016D0FB6800221A63FB68202283F83D20EC
:10238C00FB68002283F83E20FB681B6C43F02002A4
:10239C00FB681A64FB68002283F83C20012307E0E9
:1023AC00FB681B685B6903F08003802BC3D100239F
:1023BC0018461037BD4680BD80B584B000AFF860BC
:1023CC00B9607A6034E0F86800F03EF80346002B00
:1023DC0001D0012334E0BB68B3F1FF3F28D0FFF7F5
:1023EC0023F802467B68D31ABA689A4202D3BB68B8
:1023FC00002B1DD1FB681B685B6903F00403042BE5
:10240C0016D0FB6800221A63FB68202283F83D205B
:10241C00FB68002283F83E20FB681B6C43F0200213
:10242C00FB681A64FB68002283F83C20012307E058
:10243C00FB681B685B6903F00403042BC3D1002306
:10244C0018461037BD4680BD80B483B000AF7860AD
:10245C007B681B685B6903F48063B3F5806F1BD1E9
:10246C007B681B686FF480625A617B6800221A6378
:10247C007B68202283F83D207B68002283F83E2075
:10248C007B681B6C43F004027B681A647B68002237
:10249C0083F83C20012300E0002318460C37BD468E
:1024AC0080BC704780B400AF034B01221A6000BFA0
:1024BC00BD4680BC704700BF20000E4280B586B080
:1024CC0000AF78607B68002B01D1012372E27B683E
:1024DC001B6803F00103002B00F08780924B5B68B4
:1024EC0003F00C03042B0CD08F4B5B6803F00C0334
:1024FC00082B12D18C4B5B6803F48033B3F5803F0F
:10250C000BD1894B1B6803F40033002B6CD07B6818
:10251C005B68002B68D101234CE27B685B68B3F5E8
:10252C00803F06D1804B1B687F4A43F48033136095
:10253C002EE07B685B68002B0CD17B4B1B687A4AC6
:10254C0023F480331360784B1B68774A23F4802381
:10255C0013601DE07B685B68B3F5A02F0CD1724B48
:10256C001B68714A43F4802313606F4B1B686E4ADF
:10257C0043F4803313600BE06B4B1B686A4A23F403
:10258C0080331360684B1B68674A23F48023136005
:10259C007B685B68002B13D0FEF746FF386108E0C0
:1025AC00FEF742FF02463B69D31A642B01D9032381
:1025BC0000E25D4B1B6803F40033002BF0D014E0F9
:1025CC00FEF732FF386108E0FEF72EFF02463B694A
:1025DC00D31A642B01D90323ECE1534B1B6803F48E
:1025EC000033002BF0D100E000BF7B681B6803F0C8
:1025FC000203002B63D04C4B5B6803F00C03002BE5
:10260C000BD0494B5B6803F00C03082B1CD1464BD9
:10261C005B6803F48033002B16D1434B1B6803F02B
:10262C000203002B05D07B681B69012B01D0012311
:10263C00C0E13D4B1B6823F0F8027B685B69DB0053
:10264C00394913430B603AE07B681B69002B20D09F
:10265C00364B01221A60FEF7E7FE386108E0FEF700
:10266C00E3FE02463B69D31A022B01D90323A1E1F5
:10267C002D4B1B6803F00203002BF0D02A4B1B6878
:10268C0023F0F8027B685B69DB00274913430B607E
:10269C0015E0264B00221A60FEF7C6FE386108E0F2
:1026AC00FEF7C2FE02463B69D31A022B01D9032363
:1026BC0080E11D4B1B6803F00203002BF0D17B68FB
:1026CC001B6803F00803002B3AD07B689B69002B36
:1026DC0019D0174B01221A60FEF7A6FE386108E0EC
:1026EC00FEF7A2FE02463B69D31A022B01D9032343
:1026FC0060E10D4B5B6A03F00203002BF0D001206C
:10270C0000F0CEFA1CE00A4B00221A60FEF78CFE99
:10271C0038610FE0FEF788FE02463B69D31A022BA4
:10272C0008D9032346E100BF0010024000004242DA
:10273C0080044242924B5B6A03F00203002BE9D106
:10274C007B681B6803F00403002B00F0A6800023B9
:10275C00FB758B4BDB6903F08053002B0DD1884B41
:10276C00DB69874A43F08053D361854BDB6903F007
:10277C008053BB60BB680123FB75824B1B6803F461
:10278C008073002B18D17F4B1B687E4A43F48073F7
:10279C001360FEF749FE386108E0FEF745FE02467D
:1027AC003B69D31A642B01D9032303E1754B1B68D6
:1027BC0003F48073002BF0D07B68DB68012B06D10F
:1027CC006F4B1B6A6E4A43F0010313622DE07B686A
:1027DC00DB68002B0CD16A4B1B6A694A23F001039E
:1027EC001362674B1B6A664A23F0040313621CE0F6
:1027FC007B68DB68052B0CD1614B1B6A604A43F08C
:10280C00040313625E4B1B6A5D4A43F001031362BF
:10281C000BE05B4B1B6A5A4A23F001031362584BC3
:10282C001B6A574A23F0040313627B68DB68002B96
:10283C0015D0FEF7F9FD38610AE0FEF7F5FD02460A
:10284C003B69D31A41F28832934201D90323B1E098
:10285C004B4B1B6A03F00203002BEED014E0FEF787
:10286C00E3FD38610AE0FEF7DFFD02463B69D31A4F
:10287C0041F28832934201D903239BE0404B1B6AFF
:10288C0003F00203002BEED1FB7D012B05D13C4B59
:10289C00DB693B4A23F08053D3617B68DB69002BF7
:1028AC0000F08780364B5B6803F00C03082B61D07B
:1028BC007B68DB69022B46D1334B00221A60FEF792
:1028CC00B3FD386108E0FEF7AFFD02463B69D31A51
:1028DC00022B01D903236DE0294B1B6803F0007315
:1028EC00002BF0D17B681B6AB3F5803F08D1244BD9
:1028FC005B6823F400327B689B68214913434B606F
:10290C001F4B5B6823F474127B68196A7B685B6AE3
:10291C000B431B4913434B601B4B01221A60FEF700
:10292C0083FD386108E0FEF77FFD02463B69D31A50
:10293C00022B01D903233DE0114B1B6803F00073FC
:10294C00002BF0D035E0104B00221A60FEF76CFD26
:10295C00386108E0FEF768FD02463B69D31A022B8A
:10296C0001D9032326E0064B1B6803F00073002BF0
:10297C00F0D11EE07B68DB69012B07D1012319E044
:10298C000010024000700040600042420B4B5B683C
:10299C00FB60FB6803F480327B681B6A9A4206D1A9
:1029AC00FB6803F470127B685B6A9A4201D00123C6
:1029BC0000E0002318461837BD4680BD00100240C9
:1029CC0080B584B000AF786039607B68002B01D192
:1029DC000123D0E06A4B1B6803F007033A689A4264
:1029EC0010D9674B1B6823F0070265493B681343FA
:1029FC000B60634B1B6803F007033A689A4201D0E3
:102A0C000123B8E07B681B6803F00203002B20D085
:102A1C007B681B6803F00403002B05D0594B5B68E3
:102A2C00584A43F4E06353607B681B6803F0080367
:102A3C00002B05D0534B5B68524A43F460535360F0
:102A4C00504B5B6823F0F0027B689B684D49134345
:102A5C004B607B681B6803F00103002B40D07B6844
:102A6C005B68012B07D1474B1B6803F40033002B29
:102A7C0015D101237FE07B685B68022B07D1414BAA
:102A8C001B6803F00073002B09D1012373E03D4B4D
:102A9C001B6803F00203002B01D101236BE0394BBF
:102AAC005B6823F003027B685B68364913434B6019
:102ABC00FEF7BAFCF8600AE0FEF7B6FC0246FB68CB
:102ACC00D31A41F28832934201D9032353E02D4BA0
:102ADC005B6803F00C027B685B689B009A42EBD14D
:102AEC00274B1B6803F007033A689A4210D2244B19
:102AFC001B6823F0070222493B6813430B60204BF1
:102B0C001B6803F007033A689A4201D0012332E0B4
:102B1C007B681B6803F00403002B08D0194B5B681F
:102B2C0023F4E0627B68DB68164913434B607B68D7
:102B3C001B6803F00803002B09D0124B5B6823F4CD
:102B4C0060527B681B69DB000E4913434B6000F03D
:102B5C0021F802460B4B5B681B0903F00F030A4973
:102B6C00CB5C22FA03F3094A1360094B1B68184625
:102B7C00FEF718FC002318461037BD4680BD00BF79
:102B8C000020024000100240E06600080000002017
:102B9C000400002080B487B000AF0023FB6000234A
:102BAC00BB6000237B6100237B6000233B611E4BD9
:102BBC005B68FB60FB6803F00C03042B02D0082B52
:102BCC0003D027E0194B3B6127E0FB689B0C03F01B
:102BDC000F03174AD35C7B60FB6803F48033002B34
:102BEC0010D0114B5B685B0C03F00103114AD35CF2
:102BFC00BB607B680D4A03FB02F2BB68B2FBF3F3CC
:102C0C007B6104E07B680C4A02FB03F37B617B690C
:102C1C003B6102E0054B3B6100BF3B6918461C372A
:102C2C00BD4680BC704700BF0010024000127A0005
:102C3C00F86600080867000800093D0080B400AF82
:102C4C00024B1B681846BD4680BC70470000002034
:102C5C0080B500AFFFF7F2FF0246054B5B681B0A1D
:102C6C0003F007030349CB5C22FA03F3184680BD3B
:102C7C0000100240F066000880B500AFFFF7DEFFE1
:102C8C000246054B5B68DB0A03F007030349CB5C88
:102C9C0022FA03F3184680BD00100240F0660008CB
:102CAC0080B485B000AF78600A4B1B680A4AA2FB5F
:102CBC0003235B0A7A6802FB03F3FB6000BFFB682B
:102CCC005A1EFA60002BF9D100BF00BF1437BD4665
:102CDC0080BC704700000020D34D621080B586B0D8
:102CEC0000AF786000233B610023FB607B681B68AE
:102CFC0003F00103002B7DD00023FB754F4BDB69E8
:102D0C0003F08053002B0DD14C4BDB694B4A43F045
:102D1C008053D361494BDB6903F08053BB60BB68C4
:102D2C000123FB75464B1B6803F48073002B18D1F1
:102D3C00434B1B68424A43F480731360FEF774FBE9
:102D4C00386108E0FEF770FB02463B69D31A642B2E
:102D5C0001D903236DE03A4B1B6803F48073002BFD
:102D6C00F0D0364B1B6A03F44073FB60FB68002BFE
:102D7C002ED07B685B6803F44073FA689A4227D0C4
:102D8C002E4B1B6A23F44073FB602E4B01221A60FE
:102D9C002C4B00221A60294AFB681362FB6803F073
:102DAC000103002B14D0FEF73FFB38610AE0FEF75D
:102DBC003BFB02463B69D31A41F28832934201D95C
:102DCC00032336E01D4B1B6A03F00203002BEED0ED
:102DDC001A4B1B6A23F440727B685B6817491343D8
:102DEC000B62FB7D012B05D1144BDB69134A23F0DD
:102DFC008053D3617B681B6803F00203002B08D05F
:102E0C000E4B5B6823F440427B689B680B49134371
:102E1C004B607B681B6803F01003002B08D0074B3A
:102E2C005B6823F480027B68DB68044913434B60C6
:102E3C00002318461837BD4680BD00BF0010024065
:102E4C00007000404004424280B588B000AF78600A
:102E5C0000237B610023FB6100233B610023FB60AB
:102E6C000023BB617B68102B0AD07B68102B00F20F
:102E7C008A807B68012B45D07B68022B75D082E061
:102E8C00464B5B68FB60454B1B6803F08073002B63
:102E9C007BD0FB689B0C03F00F03414AD35C3B6176
:102EAC00FB6803F48033002B15D03C4B5B685B0C48
:102EBC0003F001033B4AD35C7B61FB6803F4803372
:102ECC00002B0DD0384A7B69B2FBF3F23B6902FB55
:102EDC0003F3FB6104E03B69344A02FB03F3FB613F
:102EEC002E4B5B6803F48003B3F5800F02D1FB69B2
:102EFC00BB614AE0FB695B002D4AA2FB03235B0824
:102F0C00BB6142E0254B1B6AFB60FB6803F440731A
:102F1C00B3F5807F08D1FB6803F00203002B03D0CC
:102F2C004FF40043BB611FE0FB6803F44073B3F53F
:102F3C00007F09D1194B5B6A03F00203002B03D00D
:102F4C0049F64043BB610FE0FB6803F44073B3F5F3
:102F5C00407F1CD1114B1B6803F40033002B16D09F
:102F6C004FF22443BB6112E011E0FFF785FE0246ED
:102F7C000A4B5B689B0B03F0030301335B00B2FB52
:102F8C00F3F3BB6104E000BF02E000BF00E000BF50
:102F9C00BB6918462037BD4680BD00BF00100240FB
:102FAC000C6700081C67000800127A0000093D003D
:102FBC00ABAAAAAA80B584B000AF78600023FB60EE
:102FCC007B68002B01D101237AE07B685B7CDBB250
:102FDC00002B05D17B6800221A747868FDF76EFF10
:102FEC007B6802225A74786800F0EAFA0346002BD8
:102FFC0004D07B6804225A74012361E0786800F0E5
:10300C00A3FB0346002B04D07B6804225A740123D3
:10301C0056E07B681B685A687B681B6822F00702C5
:10302C005A607B689B68002B05D0274B1B6B264A8C
:10303C0023F001031363244BDB6A23F460727B6877
:10304C009B6821491343CB627B685B68B3F1FF3FFC
:10305C0003D07B685B68FB600EE00120FFF7F4FE99
:10306C00F860FB68002B04D17B6804225A7401239E
:10307C0026E0FB68013BFB60FB681A0C7B681B6855
:10308C0002F00F029A607B681B68FA6892B2DA60F1
:10309C00786800F081FB0346002B04D07B68042287
:1030AC005A7401230CE07B680022DA737B680122DE
:1030BC005A737B6801229A737B6801225A7400232D
:1030CC0018461037BD4680BD006C004090B587B0E7
:1030DC0000AFF860B9607A6000237B6100233B612C
:1030EC00FB68002B02D0BB68002B01D1012380E0D0
:1030FC00FB681B7C012B01D102237AE0FB680122C7
:10310C001A74FB6802225A747B68002B13D1BB68BB
:10311C001B781A464FF4616303FB02F2BB685B78C1
:10312C0019460B461B015B1A9B001344BA68927834
:10313C0013447B611EE0BB681B78184600F071FBE2
:10314C0003461A464FF4616303FB02F4BB685B78D9
:10315C00184600F066FB03461A4613461B019B1AE1
:10316C009B001C44BB689B78184600F05AFB034636
:10317C0023447B617969F86800F07FFA0346002BE1
:10318C0007D0FB6804225A74FB6800221A740123CE
:10319C002FE0FB681B685A68FB681B6822F005026D
:1031AC005A60F86800F090FA38613B69B3F1FF3F60
:1031BC0018D03A697B699A4214D23B6903F5A8335B
:1031CC0003F5C0733B613969F86800F096FA034661
:1031DC00002B07D0FB6804225A74FB6800221A7477
:1031EC00012306E0FB6801225A74FB6800221A7462
:1031FC00002318461C37BD4690BD000080B588B032
:10320C0000AFF860B9607A600023BB610023FB61FA
:10321C0000237B6100233B61FB68002B02D0BB6861
:10322C00002B01D10123B5E0FB681B685B6803F040
:10323C000403002B01D00123ACE0F86800F0EDF999
:10324C00B861BB69554AA2FB0323DB0A3B61BA692F
:10325C00524BA3FB0213DB0A4FF4616101FB03F336
:10326C00D31A4F4AA2FB03235B09DAB2BB685A702C
:10327C00BB694A4AA2FB0312D20A4FF4616101FBFB
:10328C0002F29A1A464BA3FB021359090B461B0177
:10329C005B1A9B00D11ACAB2BB689A703B69172B98
:1032AC0055D93B693F4AA2FB03231B097B61396952
:1032BC003C4BA3FB01231A0913465B001344DB00B0
:1032CC00CA1AD2B2BB681A70F86800F0FDF9F8613E
:1032DC00FB69B3F1FF3F08D0FA69BB699A4204D984
:1032EC00FA69BB69D31AFB6102E04FF0FF33FB6153
:1032FC007B692D4A02FB03F3BA69D31ABB61B96926
:10330C00F86800F0BAF90346002B01D0012341E024
:10331C00FB69B3F1FF3F0CD0FA69BB691344FB6145
:10332C00F969F86800F0E9F90346002B0AD001238B
:10333C0030E0F969F86800F0E0F90346002B01D0A1
:10334C00012327E07969F86800F088FA03E03B690B
:10335C00DAB2BB681A707B68002B1AD0BB681B787A
:10336C00184600F041FA03461A46BB681A70BB684F
:10337C005B78184600F038FA03461A46BB685A7058
:10338C00BB689B78184600F02FFA03461A46BB68B8
:10339C009A70002318462037BD4680BDC5B3A29154
:1033AC0089888888ABAAAAAA8051010080B588B008
:1033BC0000AFF860B9607A600023FB610023BB6149
:1033CC0000237B61FB68002B02D0BB68002B01D172
:1033DC00012397E0FB681B7C012B01D1022391E0B8
:1033EC00FB6801221A74FB6802225A747B68002B5A
:1033FC000CD1BB68DA78FB68DA73BB685A78FB6867
:10340C005A73BB689A78FB689A731AE0BB68DB78CE
:10341C00184600F006FA03461A46FB68DA73BB68D6
:10342C005B78184600F0FDF903461A46FB685A73A0
:10343C00BB689B78184600F0F4F903461A46FB6803
:10344C009A73FB68DB7B1846FB68597BFB689B7B9C
:10345C001A4600F0DFFA03461A46FB681A73FB683B
:10346C001A7BBB681A70F86800F0D7F8F861FB6932
:10347C00264AA2FB0323DB0A7B617B69182B3AD912
:10348C007B69234AA2FB03231B09224A02FB03F399
:10349C00FA69D31AFB61F969F86800F0EEF8034693
:1034AC00002B07D0FB6804225A74FB6800221A74A4
:1034BC00012327E0F86800F007F9B861BB69B3F1A4
:1034CC00FF3F18D0BA69FB699A4214D2BB6903F565
:1034DC00A83303F5C073BB61B969F86800F00DF946
:1034EC000346002B07D0FB6804225A74FB680022A9
:1034FC001A74012306E0FB6801225A74FB6800224F
:10350C001A74002318462037BD4680BDC5B3A2915E
:10351C00ABAAAAAA8051010080B586B000AFF860B2
:10352C00B9607A6007F1140300210A461A800A4632
:10353C009A70FB68002B02D0BB68002B01D10123D1
:10354C003AE007F1140300221946F868FFF756FE1B
:10355C000346002B01D001232EE0FB681A7BBB68CD
:10356C001A70FB68DA7BBB68DA70FB685A7BBB6845
:10357C005A70FB689A7BBB689A707B68002B1AD0D8
:10358C00BB68DB78184600F02FF903461A46BB6877
:10359C00DA70BB685B78184600F026F903461A46C9
:1035AC00BB685A70BB689B78184600F01DF903463F
:1035BC001A46BB689A70002318461837BD4680BD62
:1035CC0080B584B000AF78600023FB607B68002B73
:1035DC0001D101231DE07B681B685A687B681B685E
:1035EC0022F008025A60FDF71FFFF86009E0FDF7B2
:1035FC001BFF0246FB68D31AB3F57A7F01D903236C
:10360C0007E07B681B685B6803F00803002BEED0B7
:10361C00002318461037BD4680BD80B487B000AF7C
:10362C00786000237B8200233B820023FB810023F4
:10363C007B617B681B689B697B827B681B68DB6991
:10364C00FB817B681B689B693B827A8A3B8A9A4226
:10365C0008D03B8A1A047B681B68DB699BB2134356
:10366C007B6104E07B8A1A04FB8913437B617B69D1
:10367C0018461C37BD4680BC704780B584B000AF7F
:10368C00786039600023FB73786800F05DF80346BE
:10369C00002B02D00123FB7311E07B681B683A6896
:1036AC00120C9A617B681B683A6892B2DA6178688E
:1036BC0000F072F80346002B01D00123FB73FB7B57
:1036CC0018461037BD4680BD80B485B000AF786019
:1036DC000023FB810023BB817B681B681B6AFB8179
:1036EC007B681B685B6ABB81FB891A04BB8913432B
:1036FC0018461437BD4680BC704780B584B000AF07
:10370C00786039600023FB73786800F01DF803467D
:10371C00002B02D00123FB7311E07B681B683A6815
:10372C00120C1A627B681B683A6892B25A6278680B
:10373C0000F032F80346002B01D00123FB73FB7B16
:10374C0018461037BD4680BD80B584B000AF786098
:10375C000023FB60FDF768FEF86009E0FDF764FEEE
:10376C000246FB68D31AB3F57A7F01D903230FE025
:10377C007B681B685B6803F02003002BEED07B6832
:10378C001B685A687B681B6842F010025A60002361
:10379C0018461037BD4680BD80B584B000AF786048
:1037AC000023FB607B681B685A687B681B6822F0EF
:1037BC0010025A60FDF738FEF86009E0FDF734FEA0
:1037CC000246FB68D31AB3F57A7F01D9032307E0CD
:1037DC007B681B685B6803F02003002BEED0002392
:1037EC0018461037BD4680BD80B485B000AF034687
:1037FC00FB710023FB6005E0FB680133FB60FB7988
:10380C000A3BFB71FB79092BF6D8FB68DBB21B0179
:10381C00DAB2FB791343DBB218461437BD4680BCD1
:10382C00704780B485B000AF0346FB710023FB608A
:10383C00FB791B09DBB21A4613469B0013445B0051
:10384C00FB60FB7903F00F03DAB2FB68DBB21344C5
:10385C00DBB218461437BD4680BC704780B586B0C5
:10386C0000AF7860396000237B6100233B6100234B
:10387C00FB600023BB607B68DB7B7B617B685B7BD5
:10388C003B617B689B7BFB600023BB606FE03B690B
:10389C00012B11D03B69032B0ED03B69052B0BD0B0
:1038AC003B69072B08D03B69082B05D03B690A2BD9
:1038BC0002D03B690C2B17D1FB681E2B03D8FB687D
:1038CC000133FB6050E03B690C2B05D03B690133A5
:1038DC003B610123FB6047E001233B610123FB605B
:1038EC007B6901337B613FE03B69042B08D03B696A
:1038FC00062B05D03B69092B02D03B690B2B0CD155
:10390C00FB681D2B03D8FB680133FB602CE03B6983
:10391C0001333B610123FB6026E03B69022B23D181
:10392C00FB681B2B03D8FB680133FB601CE0FB68B6
:10393C001C2B11D17B699BB2184600F039F8034659
:10394C00002B03D0FB680133FB600DE03B690133B6
:10395C003B610123FB6007E0FB681D2B04D13B6935
:10396C0001333B610123FB60BB680133BB60BA6868
:10397C003B689A428BD37B69DAB27B68DA733B691A
:10398C00DAB27B685A73FB68DAB27B689A733B696C
:10399C00DBB2FA68D2B21946786900F03BF80346FC
:1039AC001A467B681A7300BF1837BD4680BD0000ED
:1039BC0080B483B000AF0346FB80FB8803F00303A5
:1039CC009BB2002B01D000231DE0FB88104AA2FB08
:1039DC0003125209642101FB02F29B1A9BB2002BC9
:1039EC0001D001230FE0FB88094AA2FB0312D20984
:1039FC004FF4C87101FB02F29B1A9BB2002B01D150
:103A0C00012300E0002318460C37BD4680BC7047EC
:103A1C001F85EB5180B485B000AF78600B46FB700E
:103A2C001346BB700023BB600023FB607B6803F56F
:103A3C00FA63BB60FB78022B2DD8FA7813465B0037
:103A4C001344DB009B1A2C4AA2FB03235A08BB78B5
:103A5C001A44BB681A44BB68013B9B081A44BB68F8
:103A6C00013B2649A1FB03135B09D21ABB68013B3E
:103A7C002249A1FB0313DB0913441A1D204BA3FBA2
:103A8C000213D11A49080B4499080B46DB005B1A48
:103A9C00D31AFB6029E0FA7813465B001344DB0071
:103AAC009B1A154AA2FB03235A08BB781A44BB681D
:103ABC001A44BB689B081A44BB681049A1FB03134A
:103ACC005B09D21ABB680D49A1FB0313DB09134434
:103ADC009A1C0B4BA3FB0213D11A49080B449908EF
:103AEC000B46DB005B1AD31AFB60FB68DBB2184693
:103AFC001437BD4680BC7047398EE3381F85EB51B7
:103B0C002549922480B487B000AFF860B9607A6020
:103B1C0000237B61074B7B61BB689B007A69134474
:103B2C007B617B697A6892B21A6000BF1C37BD4614
:103B3C0080BC7047006C004080B485B000AF7860EA
:103B4C0039600023FB600023BB60084BFB603B68C3
:103B5C009B00FA681344FB60FB681B689BB2BB605C
:103B6C00BB6818461437BD4680BC7047006C0040DB
:103B7C0080B582B000AF78607B68002B01D1012347
:103B8C0041E07B6893F83D30DBB2002B06D17B68BB
:103B9C00002283F83C207868FDF72CFB7B6802221E
:103BAC0083F83D207B681A687B68043319461046FD
:103BBC0000F040F97B68012283F846207B680122E3
:103BCC0083F83E207B68012283F83F207B6801222A
:103BDC0083F840207B68012283F841207B68012216
:103BEC0083F842207B68012283F843207B68012202
:103BFC0083F844207B68012283F845207B680122EE
:103C0C0083F83D20002318460837BD4680BD0000D0
:103C1C0080B485B000AF78607B6893F83D30DBB240
:103C2C00012B01D0012332E07B68022283F83D2076
:103C3C007B681B68184A93420ED07B681B68B3F1F3
:103C4C00804F09D07B681B68144A934204D07B6870
:103C5C001B68134A934211D17B681B689B6803F065
:103C6C000703FB60FB68062B10D07B681B681A6887
:103C7C007B681B6842F001021A6007E07B681B68D6
:103C8C001A687B681B6842F001021A600023184610
:103C9C001437BD4680BC7047002C01400004004026
:103CAC000008004080B584B000AF78603960002314
:103CBC00FB737B6893F83C30012B01D10223B4E0F9
:103CCC007B68012283F83C207B68022283F83D202C
:103CDC007B681B689B68BB60BB6823F07703BB6089
:103CEC00BB6823F47F43BB607B681B68BA689A602F
:103CFC003B681B68B3F5005F3ED0B3F5005F00F284
:103D0C008780B3F5805F00F08680B3F5805F7FD845
:103D1C00702B1AD0702B7BD8602B50D0602B77D89F
:103D2C00502B3CD0502B73D8402B58D0402B6FD8F5
:103D3C00302B64D0302B6BD8202B60D0202B67D845
:103D4C00002B5CD0102B5AD062E07B6818683B6863
:103D5C0099683B685A683B68DB6800F050F97B68EF
:103D6C001B689B68BB60BB6843F07703BB607B68D8
:103D7C001B68BA689A604FE07B6818683B68996862
:103D8C003B685A683B68DB6800F039F97B681B6854
:103D9C009A687B681B6842F480429A603CE07B68BE
:103DAC0018683B6859683B68DB681A4600F0B0F845
:103DBC007B681B685021184600F007F92CE07B68E3
:103DCC0018683B6859683B68DB681A4600F0CEF807
:103DDC007B681B686021184600F0F7F81CE07B68D4
:103DEC0018683B6859683B68DB681A4600F090F825
:103DFC007B681B684021184600F0E7F80CE07B68F4
:103E0C001A683B681B681946104600F0DEF803E0A0
:103E1C000123FB7300E000BF7B68012283F83D2087
:103E2C007B68002283F83C20FB7B18461037BD468C
:103E3C0080BD000080B485B000AF786039607B68CD
:103E4C001B68FB607B682F4A93420BD07B68B3F1F5
:103E5C00804F07D07B682C4A934203D07B682B4A57
:103E6C00934208D1FB6823F07003FB603B685B68EE
:103E7C00FA681343FB607B68224A93420BD07B6841
:103E8C00B3F1804F07D07B681F4A934203D07B6805
:103E9C001E4A934208D1FB6823F44073FB603B68D5
:103EAC00DB68FA681343FB60FB6823F080023B6815
:103EBC005B691343FB607B68FA681A603B689A681D
:103ECC007B68DA623B681A687B689A627B680D4A89
:103EDC00934203D13B681A697B681A637B680122A1
:103EEC005A617B681B6903F00103002B05D07B68CA
:103EFC001B6923F001027B681A6100BF1437BD46B1
:103F0C0080BC7047002C01400004004000080040B9
:103F1C0080B487B000AFF860B9607A60FB681B6A48
:103F2C007B61FB681B6A23F00102FB681A62FB6869
:103F3C009B693B613B6923F0F0033B617B681B0190
:103F4C003A6913433B617B6923F00A037B617A690D
:103F5C00BB6813437B61FB683A699A61FB687A69B9
:103F6C001A6200BF1C37BD4680BC704780B487B056
:103F7C0000AFF860B9607A60FB681B6A7B61FB6814
:103F8C001B6A23F01002FB681A62FB689B693B6199
:103F9C003B6923F470433B617B681B033A69134311
:103FAC003B617B6923F0A0037B61BB681B017A69D1
:103FBC0013437B61FB683A699A61FB687A691A6200
:103FCC0000BF1C37BD4680BC704780B485B000AFC5
:103FDC00786039607B689B68FB60FB6823F070033A
:103FEC00FB603A68FB68134343F00703FB607B6894
:103FFC00FA689A6000BF1437BD4680BC704780B425
:10400C0087B000AFF860B9607A603B60FB689B6872
:10401C007B617B6923F47F437B613B681A027B687D
:10402C001A43BB6813437A6913437B61FB687A6953
:10403C009A6000BF1C37BD4680BC704780B485B009
:10404C0000AF786039607B6893F83C30012B01D16C
:10405C00022346E07B68012283F83C207B68022225
:10406C0083F83D207B681B685B68FB607B681B6882
:10407C009B68BB60FB6823F07003FB603B681B68AC
:10408C00FA681343FB607B681B68FA685A607B68AC
:10409C001B68164A93420ED07B681B68B3F1804FA5
:1040AC0009D07B681B68124A934204D07B681B685A
:1040BC00104A93420CD1BB6823F08003BB603B6871
:1040CC005B68BA681343BB607B681B68BA689A600C
:1040DC007B68012283F83D207B68002283F83C201A
:1040EC00002318461437BD4680BC7047002C014095
:1040FC00000400400008004080B582B000AF78603A
:10410C007B68002B01D1012342E07B6893F841309E
:10411C00DBB2002B06D17B68002283F84020786844
:10412C00FDF7B0F87B68242283F841207B681B687C
:10413C00DA687B681B6822F40052DA60786800F059
:10414C00D5FC7B681B681A697B681B6822F490425B
:10415C001A617B681B685A697B681B6822F02A020B
:10416C005A617B681B68DA687B681B6842F40052F2
:10417C00DA607B6800225A647B68202283F8412035
:10418C007B68202283F842207B6800225A6300233C
:10419C0018460837BD4680BD80B584B000AFF860C6
:1041AC00B9601346FB80FB6893F84230DBB2202BDE
:1041BC0012D1BB68002B02D0FB88002B01D101234C
:1041CC000BE0FB6800221A63FB881A46B968F86892
:1041DC0000F0B7FA034600E0022318461037BD463C
:1041EC0080BD000080B5BAB000AF78607B681B68FA
:1041FC001B68C7F8E4307B681B68DB68C7F8E030E5
:10420C007B681B685B69C7F8DC300023C7F8D830C3
:10421C000023C7F8D430D7F8E43003F00F03C7F805
:10422C00D830D7F8D830002B0FD1D7F8E43003F0C2
:10423C002003002B09D0D7F8E03003F02003002B2B
:10424C0003D0786800F093FB5BE2D7F8D830002BF2
:10425C0000F0DE80D7F8DC3003F00103002B06D130
:10426C00D7F8E03003F49073002B00F0D180D7F82E
:10427C00E43003F00103002B0BD0D7F8E03003F44B
:10428C008073002B05D07B685B6C43F001027B686C
:10429C005A64D7F8E43003F00403002B0BD0D7F8A2
:1042AC00DC3003F00103002B05D07B685B6C43F022
:1042BC0002027B685A64D7F8E43003F00203002B47
:1042CC000BD0D7F8DC3003F00103002B05D07B6852
:1042DC005B6C43F004027B685A64D7F8E43003F05B
:1042EC000803002B11D0D7F8E03003F02003002B8B
:1042FC0005D1D7F8DC3003F00103002B05D07B6827
:10430C005B6C43F008027B685A647B685B6C002B27
:10431C0000F0F281D7F8E43003F02003002B08D032
:10432C00D7F8E03003F02003002B02D0786800F0BF
:10433C001EFB7B681B685B6903F04003002B14BFFA
:10434C0001230023DBB2C7F8D4307B685B6C03F02D
:10435C000803002B03D1D7F8D430002B4FD078684A
:10436C0000F028FA7B681B685B6903F04003002BA4
:10437C0041D07B681B681433C7F89C30D7F89C304D
:10438C0053E8003FC7F89830D7F8983023F0400333
:10439C00C7F8D0307B681B681433D7F8D020C7F827
:1043AC00A820C7F8A430D7F8A410D7F8A82041E863
:1043BC000023C7F8A030D7F8A030002BD9D17B68E8
:1043CC00DB6B002B13D07B68DB6B7E4A5A637B68FC
:1043DC00DB6B1846FDF79EF90346002B16D07B6865
:1043EC00DB6B5B6B7A68D26B104698470EE0786893
:1043FC0000F093F90AE0786800F08FF906E078682D
:10440C0000F08BF97B6800225A6475E100BF73E100
:10441C007B681B6B012B40F04F81D7F8E43003F025
:10442C001003002B00F04881D7F8E03003F01003A4
:10443C00002B00F041810023BB607B681B681B686C
:10444C00BB607B681B685B68BB60BB687B681B6878
:10445C005B6903F04003002B00F0B6807B68DB6BDC
:10446C001B685B68A7F8BE30B7F8BE30002B00F0B5
:10447C0045817B689B8DB7F8BE209A4280F03E81C7
:10448C007B68B7F8BE20DA857B68DB6B9B69202BD9
:10449C0000F088807B681B680C33C7F88830D7F82D
:1044AC00883053E8003FC7F88430D7F8843023F4C1
:1044BC008073C7F8B8307B681B680C33D7F8B8200A
:1044CC00C7F89420C7F89030D7F89010D7F89420FC
:1044DC0041E80023C7F88C30D7F88C30002BD9D1A9
:1044EC007B681B6814337B677B6F53E8003F3B672B
:1044FC003B6F23F00103C7F8B4307B681B6814339F
:10450C00D7F8B420C7F88020FB67F96FD7F8802064
:10451C0041E80023BB67BB6F002BE1D17B681B68B4
:10452C0014333B663B6E53E8003FFB65FB6D23F099
:10453C004003C7F8B0307B681B681433D7F8B02041
:10454C00FA66BB66B96EFA6E41E800237B667B6E39
:10455C00002BE3D17B68202283F842207B68002269
:10456C001A637B681B680C33FB64FB6C53E8003FDD
:10457C00BB64BB6C23F01003C7F8AC307B681B68C2
:10458C000C33D7F8AC20BA657B65796DBA6D41E810
:10459C0000233B653B6D002BE3D17B68DB6B18463E
:1045AC00FDF77DF87B6802225A637B689A8D7B68E5
:1045BC00DB8D9BB2D31A9BB21946786800F0B6F823
:1045CC009CE000BF854800087B689A8D7B68DB8D7A
:1045DC009BB2D31AA7F8CE307B68DB8D9BB2002B35
:1045EC0000F08E80B7F8CE30002B00F089807B680D
:1045FC001B680C33BB63BB6B53E8003F7B637B6B6B
:10460C0023F49073C7F8C8307B681B680C33D7F859
:10461C00C8207A643B64396C7A6C41E80023FB63F4
:10462C00FB6B002BE3D17B681B6814337B627B6ACA
:10463C0053E8003F3B623B6A23F00103C7F8C430E8
:10464C007B681B681433D7F8C4203A63FB62F96AA1
:10465C003A6B41E80023BB62BB6A002BE3D17B6859
:10466C00202283F842207B6800221A637B681B6837
:10467C000C333B613B6953E8003FFB60FB6823F064
:10468C001003C7F8C0307B681B680C33D7F8C02008
:10469C00FA61BB61B969FA6941E800237B617B6906
:1046AC00002BE3D17B6802225A63B7F8CE3019464F
:1046BC00786800F03BF823E0D7F8E43003F080038F
:1046CC00002B09D0D7F8E03003F08003002B03D087
:1046DC00786800F0E5F814E0D7F8E43003F0400314
:1046EC00002B0ED0D7F8E03003F04003002B08D09D
:1046FC00786800F024F904E000BF02E000BF00E09D
:10470C0000BFE837BD4680BD80B483B000AF786091
:10471C0000BF0C37BD4680BC704780B483B000AF7F
:10472C00786000BF0C37BD4680BC704780B483B046
:10473C0000AF78600B467B8000BF0C37BD4680BC59
:10474C00704780B485B000AFF860B9601346FB8049
:10475C00FB68BA689A62FB68FA889A85FB68FA88E3
:10476C00DA85FB6800225A64FB68222283F8422017
:10477C00FB681B69002B07D0FB681B68DA68FB68B9
:10478C001B6842F48072DA60FB681B685A69FB682C
:10479C001B6842F001025A61FB681B68DA68FB680F
:1047AC001B6842F02002DA60002318461437BD461D
:1047BC0080BC704780B495B000AF78607B681B6894
:1047CC000C337B637B6B53E8003F3B633B6B23F405
:1047DC009073FB647B681B680C33FA6C3A64FB6364
:1047EC00F96B3A6C41E80023BB63BB6B002BE5D142
:1047FC007B681B6814333B623B6A53E8003FFB61E8
:10480C00FB6923F00103BB647B681B681433BA6C2F
:10481C00FA62BB62B96AFA6A41E800237B627B6A7E
:10482C00002BE5D17B681B6B012B19D17B681B68B6
:10483C000C33FB60FB6853E8003FBB60BB6823F0A4
:10484C0010037B647B681B680C337A6CBA617B61E8
:10485C007969BA6941E800233B613B69002BE5D1DA
:10486C007B68202283F842207B6800221A6300BFF9
:10487C005437BD4680BC704780B584B000AF7860BB
:10488C007B685B6AFB60FB680022DA85FB680022B0
:10489C00DA84F868FFF741FF00BF1037BD4680BDD2
:1048AC0080B485B000AF78607B6893F84130DBB2A0
:1048BC00212B3ED17B689B68B3F5805F14D17B685C
:1048CC001B69002B10D17B681B6AFB60FB681B8883
:1048DC001A467B681B68C2F308025A607B681B6A25
:1048EC009A1C7B681A6208E07B681B6A591C7A6800
:1048FC0011621A787B681B685A607B68DB8C9BB2F0
:10490C00013B9BB27A681946D184002B0FD17B688E
:10491C001B68DA687B681B6822F08002DA607B68AF
:10492C001B68DA687B681B6842F04002DA6000237F
:10493C0000E0022318461437BD4680BC704780B592
:10494C0082B000AF78607B681B68DA687B681B6894
:10495C0022F04002DA607B68202283F841207868DC
:10496C00FFF7D2FE002318460837BD4680BD80B540
:10497C008CB000AF78607B6893F84230DBB2222BAE
:10498C0040F0AE807B689B68B3F5805F17D17B6885
:10499C001B69002B13D10023FB627B689B6ABB62F3
:1049AC007B681B685B689BB2C3F308039AB2BB6A53
:1049BC001A807B689B6A9A1C7B689A6226E07B68EB
:1049CC009B6AFB620023BB627B689B68B3F5805FCC
:1049DC0007D07B689B68002B0AD17B681B69002B76
:1049EC0006D17B681B685B68DAB2FB6A1A7008E058
:1049FC007B681B685B68DBB203F07F03DAB2FB6A8F
:104A0C001A707B689B6A5A1C7B689A627B68DB8D88
:104A1C009BB2013B9BB27A681946D185002B5DD1C4
:104A2C007B681B68DA687B681B6822F02002DA60FE
:104A3C007B681B68DA687B681B6822F48072DA601A
:104A4C007B681B685A697B681B6822F001025A61FB
:104A5C007B68202283F842207B6800225A637B68A3
:104A6C001B6B012B35D17B6800221A637B681B689A
:104A7C000C337B617B6953E8003F3B613B6923F05E
:104A8C0010037B627B681B680C337A6A3A62FB61A9
:104A9C00F9693A6A41E80023BB61BB69002BE5D197
:104AAC007B681B681B6803F01003102B0AD10023D2
:104ABC00FB607B681B681B68FB607B681B685B6822
:104ACC00FB60FB687B689B8D19467868FFF72EFEB0
:104ADC0002E07868FBF75AFE002302E0002300E0B6
:104AEC00022318463037BD4680BD000080B584B027
:104AFC0000AF78607B681B681B6923F440517B68AE
:104B0C00DA687B681B680A431A617B689A687B6861
:104B1C001B691A437B685B691343BB607B681B682A
:104B2C00DB6823F4B05323F00C037A681268B9687D
:104B3C000B43D3607B681B685B6923F440717B6813
:104B4C009A697B681B680A435A617B681B682C4A0C
:104B5C00934203D1FEF790F8F86002E0FEF778F884
:104B6C00F860FA6813469B0013449A001A447B6859
:104B7C005B689B00B2FBF3F3224AA2FB03235B09A5
:104B8C001901FA6813469B0013449A001A447B6877
:104B9C005B689B00B2FBF3F21A4BA3FB02035B09AD
:104BAC00642000FB03F3D31A1B013233154AA2FB1A
:104BBC0003235B0903F0F0031944FA6813469B00C6
:104BCC0013449A001A447B685B689B00B2FBF3F2B7
:104BDC000C4BA3FB02035B09642000FB03F3D31A09
:104BEC001B013233074AA2FB03235B0903F00F02BC
:104BFC007B681B680A449A6000BF1037BD4680BDB5
:104C0C00003801401F85EB51002310B50446C0E964
:104C1C000033C0E90433836081814366C2818361C0
:104C2C00194608225C3000F047FA0D4B246263628F
:104C3C000C4BA3620C4BE3620C4B23630C4B9C425E
:104C4C0006D003F16802944202D0D0339C4205D1C5
:104C5C0004F15800BDE8104000F0A6BA10BD00BF2A
:104C6C00F14E0008174F00084F4F0008734F000813
:104C7C00F0010020024A0349034800F069B800BF64
:104C8C000C000020AD6000081C00002041680C4B9B
:104C9C0010B59942044601D001F002FAA168094B03
:104CAC00994202D0204601F0FBF9E168064B99428B
:104CBC0004D02046BDE8104001F0F2B910BD00BF91
:104CCC00F001002058020020C002002010B50B4B50
:104CDC000B4C0C4A20461A6004210022FFF794FF6B
:104CEC0004F1680001220921FFF78EFF04F1D000C6
:104CFC000222BDE810401221FFF786BF28030020D6
:104D0C00F0010020814C0008014800F04EBA00BFB1
:104D1C0031030020014800F049BA00BF31030020E4
:104D2C0010B50446FFF7F0FF236A1BB1BDE8104035
:104D3C00FFF7F0BF044B2362044B1B68002BF5D12B
:104D4C00FFF7C4FFF2E700BF994C000828030020CE
:104D5C002DE9F8430746884614460026D4E9019508
:104D6C00B9F1010905D52468002CF7D13046BDE80E
:104D7C00F883AB89012B07D9B5F90E30013303D079
:104D8C0029463846C04706436835E9E7036A70B5DB
:104D9C0005460E4684680BB9FFF7C2FF636EDB074E
:104DAC0005D4A389980502D4A06D00F0FEF9A3895F
:104DBC00190702D52369002B35D12146284600F06E
:104DCC0015F980B34FF0FF35636EDA0705D4A3896C
:104DDC009B0502D4A06D00F0E9F9284670BD002BAC
:104DEC0004DAA2699A4217DC0A2915D023685A1CE6
:104DFC0022601970A36816F8011F013BA3600029FB
:104E0C00EDD1002B11DA22460A21284600F0AFF82A
:104E1C000130D7D00A25D7E72246284600F0A7F85C
:104E2C000130E7D1CEE7013EE4E723685A1C22604B
:104E3C000A221A70EEE70000024B01461868FFF7D1
:104E4C00A5BF00BF180000200EB46FF0004110B5D4
:104E5C0000249DB01FAB0290069007910491094865
:104E6C00094953F8042B0591006802A901931B947E
:104E7C0000F0F0FA029B1C701DB0BDE8104003B0AE
:104E8C00704700BF180000200802FFFF0EB44FF45B
:104E9C00017270B500259DB021AC54F8046BADF8CF
:104EAC0014201B9502900690FBF74AF90B4B0390CC
:104EBC000B934FF6FF7307900948ADF81630324646
:104ECC00234602A900680F951495019400F018FC74
:104EDC001DB0BDE8704003B0704700BF134F000811
:104EEC001800002010B50C46B1F90E1000F00EF9A8
:104EFC000028ABBF636DA3891B1823F48053ACBF90
:104F0C006365A38110BD002070472DE9F0411F4659
:104F1C008B890546DB050C46164605D50223002277
:104F2C00B1F90E1000F0E0F8A389324623F4805357
:104F3C00A38128463B46B4F90E10BDE8F04100F0C1
:104F4C00F7B810B50C46B1F90E1000F0CDF8431CB3
:104F5C00A38915BF606523F4805343F48053A38168
:104F6C0018BFA38110BDB1F90E1000F0ADB8F8B5A3
:104F7C000E461446054618B1036A0BB9FFF7D0FE6E
:104F8C00A369A360A3891A0701D5236943B92146F4
:104F9C00284600F02BF818B14FF0FF373846F8BD13
:104FAC0023682269F6B2981A63693746834205DC96
:104FBC002146284601F074F80028EDD1A368013B86
:104FCC00A36023685A1C22601E706269431C9A42BB
:104FDC0004D0A389DB07E1D50A2EDFD12146284670
:104FEC0001F05EF80028D9D0D6E7000038B5294B7F
:104FFC00054618680C4618B1036A0BB9FFF790FE0A
:10500C00B4F90C30190722D4DA0607D409222A6025
:10501C0043F040034FF0FF30A38133E0580712D523
:10502C00616B41B104F14403994202D0284600F06F
:10503C00BFF800236363A38923F02403A381002317
:10504C00636023692360A38943F00803A381236968
:10505C004BB9A38903F42073B3F5007F03D0214629
:10506C00284601F06AF8B4F90C3013F001020AD0AA
:10507C000022A26062695242A261226942B913F015
:10508C008000C5D138BD990758BF6269A260F4E7AA
:10509C000020F7E71800002010B5013902449042B7
:1050AC0001D1002005E0037811F8014FA34201D093
:1050BC00181B10BD0130F2E703460244934200D1A5
:1050CC00704703F8011BF9E738B50023054D04467A
:1050DC0008462B60FBF7D1FF431C02D12B6803B1B0
:1050EC00236038BD2C03002038B504460846114611
:1050FC000022054D2A601A46FBF7E3FF431C02D140
:10510C002B6803B1236038BD2C03002038B504464E
:10511C00084611460022054D2A601A46FBF774FF1B
:10512C00431C02D12B6803B1236038BD2C03002033
:10513C0038B50446084611460022054D2A601A4629
:10514C00FBF77FFF431C02D12B6803B1236038BDF2
:10515C002C030020014B1868704700BF180000207A
:10516C0070B500260C4D0D4C641BA410A64209D141
:10517C0001F01AFA00260A4D0A4C641BA410A64230
:10518C0005D170BD55F8043B98470136EEE755F84C
:10519C00043B98470136F2E7786800087868000805
:1051AC00786800087C6800087047704770470000FA
:1051BC0038B50546002940D051F8043C0C1F002B93
:1051CC00B8BFE41800F0DEF81C4A136833B963600A
:1051DC0014602846BDE8384000F0DAB8A34208D97C
:1051EC00206821188B4201BF19685B68091821607F
:1051FC00EDE71A465B680BB1A342FAD91168501857
:10520C00A0420BD120680144501883421160E0D1B8
:10521C0018685B68084410605360DAE702D90C2305
:10522C002B60D6E7206821188B4201BF19685B6898
:10523C000918216063605460CBE738BD3803002047
:10524C0070B50F4E0C463168054611B901F05EF889
:10525C0030602146284601F059F8431C03D14FF029
:10526C00FF34204670BDC41C24F00304A042F8D0C7
:10527C00211A284601F04AF80130F2D1EFE700BFBD
:10528C00340300202DE9F843CD1C25F00305083527
:10529C000C2D38BF0C25002D064601DBA94204D984
:1052AC000C2333600020BDE8F883DFF8D48000F0D5
:1052BC0069F8D8F800301C4644BB29463046FFF745
:1052CC00BFFF431C044658D1D8F800402746002F96
:1052DC0043D1002C4BD023683946304604EB0309EC
:1052EC0001F014F8814542D1216830466D1A2946E7
:1052FC00FFF7A6FF01303AD023682B442360D8F87F
:10530C0000305A6862BBC8F800700FE02268521B6C
:10531C0020D40B2A17D96119A342256018BF5960F4
:10532C00636808BFC8F8001062514B60304600F04B
:10533C002FF804F10B00231D20F00700C21A1CBF2C
:10534C001B1AA350AFE76268A3420CBFC8F8002039
:10535C005A60EBE723466468AEE73C467F68B6E7E5
:10536C001A465B68A342FBD100235360DEE70C2393
:10537C003046336000F00CF894E70560D6E700BFC8
:10538C00380300200148FFF710BF00BF3003002096
:10539C000148FFF70BBF00BF300300202DE9F04799
:1053AC001F468E688246BE420C4690460B682DD82E
:1053BC00B1F90C2012F4906F26D06569096905EBE0
:1053CC004505A3EB010905EBD5757B1C4B446D1012
:1053DC009D4238BF1D46530527D52946FFF752FF7E
:1053EC00064660B34A46216900F0AEFFA38923F458
:1053FC00906343F08003A38126614E4426603E46B1
:10540C006561A5EB0905A560BE4200D93E46324652
:10541C004146206800F03EFF0020A3689B1BA36060
:10542C00236833442360BDE8F0872A4600F09AFFD6
:10543C0006460028E0D150462169FFF7B9FE0C233F
:10544C00CAF80030A3894FF0FF3043F04003A3812A
:10545C00E9E700002DE9F04F98468B8907461B06BB
:10546C000D4614469DB010D50B6973B94021FFF75A
:10547C0009FF2860286130B90C233B604FF0FF30E6
:10548C001DB0BDE8F08F40236B61002309932023EE
:10549C008DF8293030234FF00109CDF80C80DFF85E
:1054AC0098818DF82A3023469A4613F8012B0AB1BD
:1054BC00252AF9D1BAEB040B0BD05B4622462946C0
:1054CC003846FFF76BFF013000F0A780099A5A4469
:1054DC0009929AF80030002B00F09F8000234FF0C7
:1054EC00FF32CDE905230AF1010A049307938DF8E5
:1054FC0053301A935446052214F8011B4E4800F001
:10550C0015FF049AD8B9D00644BF20238DF8533028
:10551C00110744BF2B238DF853309AF800302A2BF7
:10552C0015D0544600204FF00A0C079A214611F86A
:10553C00013B303B092B4BD9B0B1079214E0A0EBE7
:10554C00080309FA03F31343A2460493D2E7039B1F
:10555C00191D1B680391002BBBBF5B4242F002027A
:10556C0007930793B8BF049223782E2B0AD1637844
:10557C002A2B32D1039B02341A1D1B68039243EA77
:10558C00E3730593DFF8B4A003225046217800F0B2
:10559C00CDFE38B14022049BA0EB0A00824013439D
:1055AC000134049314F8011B062225488DF82810A9
:1055BC0000F0BCFE002836D0224B1BBB039B0733EC
:1055CC0023F0070308330393099B334409936AE7D9
:1055DC000C4601200CFB0232A8E700234FF00A0C0A
:1055EC00194601340593204610F8012B303A092A4C
:1055FC0003D9002BC6D00591C4E7044601230CFB4C
:10560C000121F0E703AB00932A4638460E4B04A960
:10561C00AFF30080421C0646D6D1AB895B063FF542
:10562C002DAF09982CE703AB00932A463846064B5E
:10563C0004A900F04BFAEDE71E6700082467000888
:10564C002867000800000000A953000838B54B1C5F
:10565C00144603D14FF0FF35284638BD9389CDB29F
:10566C0023F020039381636B52688BB1A36B93423D
:10567C0008DD23685A1E226003F8015C636801335D
:10568C006360E9E7214600F0CDFD0028F1D0E1E7A9
:10569C002169236851B1994208D213F8011CA9421F
:1056AC0004D1013B013223606260D5E7C4E90F32BB
:1056BC0004F1440363630323A363234603F8465FA7
:1056CC0023600123DCE710B50C46496B69B104F18A
:1056DC004403994201D0FFF76BFD0020236C6063FB
:1056EC00636013B1E36B236010BD23694FF0FF308F
:1056FC00236000236360A38943F02003A381F3E7B5
:10570C002DE9F04F0C4600210646ADF5237DCDE981
:10571C004411AB490DF10408A091AA49AA4FCDF848
:10572C001881A191009392F80090B9F1000F00F04C
:10573C00598117F80930551C13F0080319D0636808
:10574C00002B0FDD23681A78BA5C120701D42A46A5
:10575C00E9E7459A01330132459262682360013AC8
:10576C006260ECE721463046A19B98470028E9D0BF
:10577C00EDE7B9F1250F40F08680419343935378C0
:10578C002A2B04BF1023951C4FF00A0208BF41932B
:10579C00AA461AF8011BA1F13003092B1ED9DFF818
:1057AC002CB20322584600F0C1FD38B101235546F6
:1057BC00419AA0EB0B0083401343419315F8013B36
:1057CC00782B06D8572B10D8252B5CD056D8002B0D
:1057DC0074D0032347930A23429387E0439B554697
:1057EC0002FB031130394391D2E7A3F15802202A6E
:1057FC00EFD801A151F822F0D7580008DF57000864
:10580C00DF57000831590008DF570008DF57000840
:10581C00DF570008DF570008DF570008DF57000884
:10582C00DF570008475900082D5900088F58000809
:10583C008F5800088F580008DF570008E9580008F7
:10584C00DF570008DF570008DF570008DF57000854
:10585C0057590008F1580008CF580008DF570008C6
:10586C00DF57000853590008DF5700082D5900086E
:10587C00DF570008DF570008D7580008453B022BBC
:10588C00A7D8052331E06368002B0DDD23681A7857
:10589C004A4540F0A780013362682360459B013A7A
:1058AC0001336260459352E721463046A19B9847ED
:1058BC000028EBD04498002840F08C804FF0FF304B
:1058CC008CE0419A42F020024192419A42F40072DB
:1058DC00419210226E2B429202D905E00023429392
:1058EC00032302E008234293042347936368002BAD
:1058FC0039DD419B590604D423681A78BA5C120727
:10590C0038D4479B022B47DC6B462246304641A9D4
:10591C0000F0FAF9012865D002287FF418AFC9E726
:10592C000A22D7E72946404600F043FC419B054636
:10593C0043F0400341930123D7E7419B43F04003DD
:10594C0041930023D1E70223CFE74198C3063FF5EB
:10595C00FEAE009B459A191D00911B68C0074CBFF9
:10596C001A801A60F3E621463046A19B984700281E
:10597C00BFD09FE7459A013245926268013A002AEE
:10598C00626002DD01332360B6E721463046A19BFD
:10599C0098470028B0D08DE7042B06DC6B462246D6
:1059AC00304641A900F00AFAB4E7094B002B3FF44A
:1059BC00CEAE6B462246304641A9AFF30080A9E734
:1059CC0059560008D35600086D6700082467000874
:1059DC0000000000A3895B063FF570AF0DF5237D39
:1059EC00BDE8F08F4498F9E72DE9F0471646984644
:1059FC008A680B6907469342B8BF1346336091F827
:105A0C0043200C46DDF820900AB101333360236843
:105A1C00990642BF336802333360256815F00605DA
:105A2C0006D104F1190AE36832689B1AAB422BDCED
:105A3C0094F843302268003B18BF0123920630D4FF
:105A4C004146384604F14302C847013023D023684D
:105A5C00226903F00603042B14BF002533684FF0B2
:105A6C00000608BFE56804F11A0408BFED1A54F8E3
:105A7C00123C08BF25EAE5759342C4BF9B1AED188A
:105A8C00B5421AD1002008E001235246414638465F
:105A9C00C847013003D14FF0FF30BDE8F087013526
:105AAC00C1E73020E11881F843005A1C94F84510E6
:105ABC002244023382F84310C2E7012322464146B6
:105ACC003846C8470130E6D00136D9E72DE9FF4703
