:020000040800F2
:1000000000500020590E0008A50B0008AD0B000899
:10001000B50B0008BD0B0008C50B00080000000070
:10002000000000000000000000000000CD0B0008F0
:10003000D90B000800000000E50B0008F10B0008D8
:10004000A10E0008A10E0008A10E0008A10E0008D4
:10005000A10E0008A10E0008A10E0008A10E0008C4
:10006000A10E0008A10E0008A10E0008A10E0008B4
:10007000A10E0008A10E0008A10E0008A10E0008A4
:10008000A10E0008A10E0008A10E0008A10E000894
:10009000A10E0008A10E0008A10E0008A10E000884
:1000A000A10E0008A10E0008A10E0008A10E000874
:1000B000A10E0008A10E0008A10E0008A10E000864
:1000C000A10E0008A10E0008A10E0008A10E000854
:1000D000A10E0008FD0B0008A10E0008A10E0008EB
:1000E000A10E0008A10E0008A10E000800000000EB
:1000F0000000000000000000000000000000000000
:0C01000000000000000000005FF808F1A3
:10010C0010B5054C237833B9044B13B10448AFF345
:10011C0000800123237010BD680000200000000047
:10012C00FC5A000808B5034B1BB103490348AFF355
:10013C00008008BD000000006C000020FC5A000884
:10014C00034613F8012B002AFBD1181A013870470B
:10015C0080B588B000AF07F1100300221A605A6016
:10016C009A60DA60234B9B69224A43F01003936137
:10017C00204B9B6903F01003FB60FB681D4B9B69D4
:10018C001C4A43F0200393611A4B9B6903F0200334
:10019C00BB60BB68174B9B69164A43F00403936121
:1001AC00144B9B6903F004037B607B68114B9B69C8
:1001BC00104A43F0080393610E4B9B6903F008034C
:1001CC003B603B68002220210B4801F02FFA2023D2
:1001DC003B6101237B610023BB610223FB6107F1BF
:1001EC0010031946044801F09DF800BF2037BD46A6
:1001FC0080BD00BF001002400008014080B500AF78
:10020C00124B134A1A60114B124A5A600F4B0022C0
:10021C009A600E4B0022DA600C4B4FF480421A614C
:10022C000A4B00225A61094B00229A61074B0022AB
:10023C00DA61064B00221A62044801F00FFA0346F9
:10024C00002B01D000F017FC00BF80BD8400002003
:10025C0000540040801A060080B58AB000AF786068
:10026C0007F1140300221A605A609A60DA607B6806
:10027C001B681D4A934232D11C4B9B691B4A43F0AD
:10028C0008039361194B9B6903F008033B613B69BD
:10029C004FF440737B611223BB6103233B6207F174
:1002AC0014031946124801F03DF8124B5B687B624F
:1002BC007B6A43F0E0637B627B6A43F002037B6200
:1002CC000C4A7B6A5360094BDB69084A43F4001300
:1002DC00D361064BDB6903F40013FB60FB6800BFC2
:1002EC002837BD4680BD00BF0054004000100240BE
:1002FC00000C01400000014080B500AF322000F03E
:10030C002DFE302000F036F8052000F027FE3020BE
:10031C0000F030F8012000F021FE302000F02AF827
:10032C000A2000F01BFE202000F024F80A2000F028
:10033C0015FE282000F01EF8012000F00FFE08200A
:10034C0000F018F8012000F009FE012000F012F86E
:10035C00022000F003FE062000F00CF8012000F053
:10036C00FDFD0C2000F006F8012000F0F7FD00BFA9
:10037C0080BD000080B586B002AF0346FB71FB79EF
:10038C0023F00F03FB73FB791B01BB73FB7B43F067
:10039C000C03DBB23B72FB7B43F00803DBB27B72DA
:1003AC00BB7B43F00C03DBB2BB72BB7B43F008039B
:1003BC00DBB2FB7207F108024FF0FF33009304230A
:1003CC004E21064801F08EFA0346002B01D0012382
:1003DC0000E0002318461037BD4680BD8400002085
:1003EC0080B586B002AF0346FB71FB7923F00F0397
:1003FC00FB73FB791B01BB73FB7B43F00D03DBB27F
:10040C003B72FB7B43F00903DBB27B72BB7B43F09B
:10041C000D03DBB2BB72BB7B43F00903DBB2FB7297
:10042C0007F108024FF0FF33009304234E210648D6
:10043C0001F058FA0346002B01D0012300E0002301
:10044C0018461037BD4680BD8400002080B582B0B0
:10045C0000AF786006E07B685A1C7A601B781846FF
:10046C00FFF7BEFF7B681B78002BF4D100BF00BFE9
:10047C000837BD4680BD000080B584B000AF786001
:10048C007B681B68FB60FB681B0C1A460221074843
:10049C0003F0B0F8FB689BB21A460321034803F043
:1004AC00A9F800BF1037BD4680BD00BF2801002051
:1004BC0080B584B000AF78600121154803F0B4F822
:1004CC00034643F2F22293420CD07B6806221A7048
:1004DC007B6801225A707B6801229A707B6800222B
:1004EC00DA7011E003210A4803F09EF80346FB6022
:1004FC000221074803F098F803461A04FB681343DB
:10050C00FB60FA687B681A601037BD4680BD00BF7F
:10051C002801002080B58EB004AF786007F120016F
:10052C0007F1240207F11003039307F1140302935C
:10053C0007F11803019307F11C0300930B466B4959
:10054C00786803F057FF0346062B40F0CA8007F18A
:10055C000C0300210A461A800A469A700023BB60DD
:10056C00BB69634A82FB03129210DB17D31A5BB28E
:10057C001B0158B2BA695E4B83FB02139910D31757
:10058C00C91A0B469B000B445B00D11A4BB20343B8
:10059C005BB2DBB23B737B69554A82FB0312921050
:1005AC00DB17D31A5BB21B0158B27A69504B83FB31
:1005BC0002139910D317C91A0B469B000B445B000E
:1005CC00D11A4BB203435BB2DBB27B733B69484A33
:1005DC0082FB03129210DB17D31A5BB21B0158B2C9
:1005EC003A69434B83FB02139910D317C91A0B4674
:1005FC009B000B445B00D11A4BB203435BB2DBB2E2
:10060C00BB73FB693A4A82FB03129210DB17D31AB5
:10061C005BB21B0158B2FA69354B83FB021399107C
:10062C00D317C91A0B469B000B445B00D11A4BB273
:10063C0003435BB2DBB2BB723B6A2D4A82FB0312F3
:10064C009210DB17D31A5BB21B0158B23A6A284BD3
:10065C0083FB02139910D317C91A0B469B000B444A
:10066C005B00D11A4BB203435BB2DBB27B727B7A79
:10067C007B727B6AA3F5FA631D4A82FB031292100C
:10068C00DB17D31A5BB21B0158B27B6AA3F5FA6273
:10069C00174B83FB02139910D317C91A0B469B00F7
:1006AC000B445B00D11A4BB203435BB2DBB2FB725F
:1006BC0007F10C03012219460E4802F07FFA07F1EC
:1006CC000803012219460B4802F0E8FB07F1080366
:1006DC001846FFF7D1FE43F2F2220121054802F041
:1006EC0089FF00BF2837BD4680BD00BF145B0008E2
:1006FC00676666662801002080B582B000AF78601E
:10070C007B681B68154A934224D1154B1B780A2B26
:10071C000CD1144B1B781A46134B002199541248D8
:10072C00FFF7F8FE0F4B00221A700EE00D4B1B78F2
:10073C00262B0AD80B4B1B785A1CD1B2094A1170C4
:10074C001A46074B1978084B99540122044907485B
:10075C0002F0D6FF00BF0837BD4680BD003801400F
:10076C00D800002004010020DC0000204001002003
:10077C0080B483B000AF0346FB71FB79062B1FD806
:10078C0001A252F823F000BFC9070008B107000806
:10079C00B5070008B9070008BD070008C107000825
:1007AC00C5070008094B0CE0094B0AE0094B08E0AF
:1007BC00094B06E0094B04E0094B02E0094B00E051
:1007CC00094B18460C37BD4680BC7047885B000847
:1007DC008C5B0008905B0008945B0008985B000839
:1007EC009C5B0008A05B0008A45B0008F0B585B01A
:1007FC0002AF3B1D01221946364802F077FA3B4600
:10080C0001221946334802F0FFFB3B791B09DBB28E
:10081C001A4613469B0013445B001A463B7903F0BF
:10082C000F031A447B791B09DBB219460B469B005C
:10083C000B445B0019467B7903F00F031944BB7919
:10084C001B09DBB2184603469B0003445B001846A9
:10085C00BB7903F00F03034400930B461E491F485A
:10086C0003F0A6FDBB781B09DBB21A4613469B00AE
:10087C0013445B001A46BB7803F00F03D5187B7842
:10088C001B09DBB21A4613469B0013445B001A4645
:10089C007B7803F00F03D618FB781B09DBB21A46E2
:1008AC0013469B0013445B001A46FB7803F00F03BE
:1008BC00D4183B781846FFF75BFF0346019300946E
:1008CC0033462A460649074803F072FD00BF0C3731
:1008DC00BD46F0BD28010020A85B000808010020DF
:1008EC00B85B00081401002080B500AF8020FFF732
:1008FC0041FD0548FFF7AAFDC020FFF73BFD03486B
:10090C00FFF7A4FD00BF80BD0801002014010020EA
:10091C0080B582B000AF00F0BFFA00F04FF8FFF7DF
:10092C0017FCFFF76BFC00F0ADF800F011FAFFF7C5
:10093C00E3FC01221B491C4802F0E2FE01211B488A
:10094C0002F072FE034643F2F222934209D0184899
:10095C0003F026FD43F2F2220121144802F04AFE74
:10096C000EE0144803F01CFD00237B603B1D184671
:10097C00FFF79EFD3B1D012219460C4802F08EFA32
:10098C0000F0E2FA02460C4B1B68D31AB3F57A7FDF
:10099C00F6D3FFF72BFFFFF7A7FF4FF4FA7000F029
:1009AC00DDFAEDE7D80000204001002028010020EE
:1009BC00D05B0008E05B00082401002080B594B0F7
:1009CC0000AF07F1280328220021184603F018FE77
:1009DC0007F1140300221A605A609A60DA601A61F7
:1009EC003B1D00221A605A609A60DA600523BB62D4
:1009FC004FF48033FB6200233B6301237B630123B1
:100A0C00BB6302237B644FF48033BB644FF4E0136D
:100A1C00FB6407F12803184601F0C8FA0346002BC3
:100A2C0001D000F028F80F237B610223BB61002367
:100A3C00FB614FF480633B6200237B6207F114037C
:100A4C000221184601F034FD0346002B01D000F0C2
:100A5C0012F801237B604FF48073BB603B1D18467A
:100A6C0001F0B4FE0346002B01D000F004F800BFE7
:100A7C005037BD4680BD80B400AF72B600BF00BF1A
:100A8C00FDE7000080B582B000AF3B1D00210A4697
:100A9C001A800A469A7000233B60124B124A1A6065
:100AAC00104B4FF0FF325A600E4B4FF480729A602D
:100ABC000C4801F0F7FF0346002B01D0FFF7DBFFDA
:100ACC0023233B7159237B715923BB7101233B7049
:100ADC0001237B700123BB700023FB7000BF083720
:100AEC00BD4680BD280100200028004080B584B0A0
:100AFC0000AF78607B681B680B4A934210D101F001
:100B0C0049FA0A4BDB69094A43F00063D361074B8E
:100B1C00DB6903F00063FB60FB68054B01221A6084
:100B2C0000BF1037BD4680BD0028004000100240B9
:100B3C003C04424280B485B000AF154B9B69144A0B
:100B4C0043F001039361124B9B6903F00103BB60FB
:100B5C00BB680F4BDB690E4A43F08053D3610C4BDF
:100B6C00DB6903F080537B607B680A4B5B68FB603E
:100B7C00FB6823F0E063FB60FB6843F00073FB60F1
:100B8C00044AFB68536000BF1437BD4680BC7047F5
:100B9C00001002400000014080B400AF00BFFDE730
:100BAC0080B400AF00BFFDE780B400AF00BFFDE72D
:100BBC0080B400AF00BFFDE780B400AF00BFFDE71D
:100BCC0080B400AF00BFBD4680BC704780B400AF9E
:100BDC0000BFBD4680BC704780B400AF00BFBD46AF
:100BEC0080BC704780B500AF00F09CF900BF80BDA1
:100BFC0080B500AF024802F0A9FD00BF80BD00BF68
:100C0C004001002080B586B000AFF860B9607A6012
:100C1C0000237B610AE0AFF300800146BB685A1CDD
:100C2C00BA60CAB21A707B6901337B617A697B68DE
:100C3C009A42F0DB7B6818461837BD4680BD80B5FC
:100C4C0086B000AFF860B9607A6000237B6109E080
:100C5C00BB685A1CBA601B781846AFF300807B69DE
:100C6C0001337B617A697B689A42F1DB7B681846B9
:100C7C001837BD4680BD80B483B000AF78604FF0AC
:100C8C00FF3318460C37BD4680BC704780B483B028
:100C9C0000AF786039603B684FF400525A60002313
:100CAC0018460C37BD4680BC704780B483B000AF8B
:100CBC007860012318460C37BD4680BC704780B461
:100CCC0085B000AFF860B9607A600023184614371D
:100CDC00BD4680BC7047000080B586B000AF786020
:100CEC00144A154BD31A7B617B693B61134B1B6810
:100CFC00002B02D1114B124A1A60104B1A687B68F8
:100D0C0013443A699A4207D203F0C8FC03460C22FA
:100D1C001A604FF0FF3309E0084B1B68FB60074B70
:100D2C001A687B681344054A1360FB681846183729
:100D3C00BD4680BD00500020000400003C01002096
:100D4C00D802002080B400AF00BFBD4680BC704705
:100D5C0080B500AF114B124A1A60104B4FF4E132C0
:100D6C005A600E4B00229A600C4B0022DA600B4B3F
:100D7C0000221A61094B0C225A61084B00229A611D
:100D8C00064B0022DA61054802F06AFC0346002B90
:100D9C0001D0FFF770FE00BF80BD00BF40010020F6
:100DAC000038014080B588B000AF786007F11003BF
:100DBC0000221A605A609A60DA607B681B68204ACD
:100DCC00934239D11F4B9B691E4A43F48043936174
:100DDC001C4B9B6903F48043FB60FB68194B9B69BC
:100DEC00184A43F004039361164B9B6903F0040308
:100DFC00BB60BB684FF400733B6102237B61032330
:100E0C00FB6107F1100319460F4800F08BFA4FF401
:100E1C0080633B6100237B610023BB6107F11003FE
:100E2C001946094800F07EFA00220021252000F026
:100E3C0090F9252000F0A9F900BF2037BD4680BDF0
:100E4C00003801400010024000080140FFF77AFF13
:100E5C000B480C490C4A002302E0D458C45004330C
:100E6C00C4188C42F9D3094A094C002301E01360E1
:100E7C000432A242FBD303F017FCFFF749FD704785
:100E8C000000002068000020AC5D00086800002015
:100E9C00D8020020FEE7000080B500AF084B1B68AD
:100EAC00074A43F010031360032000F047F90020B9
:100EBC0000F008F8FFF73EFE0023184680BD00BF87
:100ECC000020024080B582B000AF7860124B1A68E7
:100EDC00124B1B7819464FF47A73B3FBF1F3B2FB48
:100EEC00F3F3184600F05FF90346002B01D0012301
:100EFC000EE07B680F2B0AD8002279684FF0FF3088
:100F0C0000F027F9064A7B681360002300E00123F8
:100F1C0018460837BD4680BD0000002008000020A0
:100F2C000400002080B400AF054B1B781A46054B1B
:100F3C001B681344034A136000BFBD4680BC704756
:100F4C00080000208801002080B400AF024B1B6811
:100F5C001846BD4680BC70478801002080B584B01F
:100F6C0000AF7860FFF7F0FFB8607B68FB60FB6850
:100F7C00B3F1FF3F05D00A4B1B781A46FB681344AC
:100F8C00FB6000BFFFF7E0FF0246BB68D31AFA68AC
:100F9C009A42F7D800BF00BF1037BD4680BD00BFD6
:100FAC000800002080B485B000AF78607B6803F047
:100FBC000703FB600C4BDB68BB60BA684FF6FF03A2
:100FCC001340BB60FB681A02BB68134343F0BF635A
:100FDC0043F40033BB60044ABB68D36000BF1437D2
:100FEC00BD4680BC704700BF00ED00E080B400AF90
:100FFC00044BDB681B0A03F007031846BD4680BC94
:10100C00704700BF00ED00E080B483B000AF034632
:10101C00FB7197F90730002B0BDBFB7903F01F02F8
:10102C00064997F907305B09012000FA02F241F8F2
:10103C00232000BF0C37BD4680BC704700E100E0A8
:10104C0080B483B000AF03463960FB7197F9073069
:10105C00002B0ADB3B68DAB20C4997F90730120116
:10106C00D2B20B4483F800230AE03B68DAB2084999
:10107C00FB7903F00F03043B1201D2B20B441A7636
:10108C0000BF0C37BD4680BC704700BF00E100E0DC
:10109C0000ED00E080B489B000AFF860B9607A6010
:1010AC00FB6803F00703FB61FB69C3F10703042B27
:1010BC0028BF0423BB61FB690433062B02D9FB69EF
:1010CC00033B00E000237B614FF0FF32BB6902FA67
:1010DC0003F3DA43BB681A407B699A404FF0FF3147
:1010EC007B6901FA03F3D9437B680B401343184621
:1010FC002437BD4680BC704780B582B000AF7860A5
:10110C007B68013BB3F1807F01D301230FE00A4AD6
:10111C007B68013B53600F214FF0FF30FFF790FFCE
:10112C00054B00229A60044B07221A6000231846D4
:10113C000837BD4680BD00BF10E000E080B582B02E
:10114C0000AF78607868FFF72DFF00BF0837BD4609
:10115C0080BD80B586B000AF0346B9607A60FB7382
:10116C0000237B61FFF742FF78617A68B968786980
:10117C00FFF790FF024697F90F3011461846FFF71C
:10118C005FFF00BF1837BD4680BD80B582B000AF91
:10119C000346FB7197F907301846FFF735FF00BF80
:1011AC000837BD4680BD80B582B000AF78607868E6
:1011BC00FFF7A2FF034618460837BD4680BD80B432
:1011CC0085B000AF78600023FB737B6893F8213007
:1011DC00DBB2022B08D07B6804229A637B68002266
:1011EC0083F82020012320E07B681B681A687B6849
:1011FC001B6822F00E021A607B681B681A687B68F9
:10120C001B6822F001021A607B681A6C7B68DB6B2E
:10121C00012101FA02F25A607B68012283F8212035
:10122C007B68002283F82020FB7B18461437BD46D0
:10123C0080BC704780B584B000AF78600023FB732E
:10124C007B6893F82130DBB2022B05D07B6804223B
:10125C009A630123FB7351E07B681B681A687B68F7
:10126C001B6822F00E021A607B681B681A687B6888
:10127C001B6822F001021A607B681B68224A9342A9
:10128C0029D07B681B68214A934222D07B681B685B
:10129C001F4A93421AD07B681B681E4A934212D095
:1012AC007B681B681C4A93420AD07B681B681B4AEC
:1012BC00934202D14FF480130EE04FF080730BE099
:1012CC004FF4803308E04FF4805305E04FF4807303
:1012DC0002E0102300E00123114A53607B680122D5
:1012EC0083F821207B68002283F820207B685B6BCD
:1012FC00002B03D07B685B6B78689847FB7B1846A8
:10130C001037BD4680BD00BF080002401C000240E3
:10131C003000024044000240580002406C00024081
:10132C000000024080B48BB000AF786039600023BD
:10133C007B6200233B6269E101227B6A02FA03F3C0
:10134C00FB613B681B68FA691340BB61BA69FB69B6
:10135C009A4240F058813B685B689A4A93425ED04F
:10136C00984A934275D8984A934258D0964A9342D9
:10137C006FD8964A934252D0944A934269D8944A71
:10138C0093424CD0924A934263D8924A934246D0AD
:10139C00904A93425DD8122B2AD8122B59D801A20D
:1013AC0052F823F02B140008051400081714000839
:1013BC00591400085F1400085F1400085F1400083B
:1013CC005F1400085F1400085F1400085F14000825
:1013DC005F1400085F1400085F1400085F14000815
:1013EC005F1400085F1400080D1400082114000895
:1013FC00794A934213D02CE03B68DB683B6229E0CE
:10140C003B68DB6804333B6224E03B68DB680833F1
:10141C003B621FE03B68DB680C333B621AE03B68C5
:10142C009B68002B02D104233B6213E03B689B6852
:10143C00012B05D108233B627B68FA691A6109E02C
:10144C0008233B627B68FA695A6103E000233B6224
:10145C0000E000BFBB69FF2B01D87B6801E07B6813
:10146C0004337B61BB69FF2B02D87B6A9B0002E0D3
:10147C007B6A083B9B003B617B691A680F213B69C7
:10148C0001FA03F3DB431A40396A3B6901FA03F3AF
:10149C001A437B691A603B685B6803F08053002B2E
:1014AC0000F0B1804D4B9B694C4A43F001039361B2
:1014BC004A4B9B6903F00103BB60BB68484A7B6ADB
:1014CC009B08023352F82330FB607B6A03F0030362
:1014DC009B000F2202FA03F3DB43FA681340FB6014
:1014EC007B68404A934213D07B683F4A93420DD0AD
:1014FC007B683E4A934207D07B683D4A934201D1B8
:10150C00032306E0042304E0022302E0012300E0AD
:10151C0000237A6A02F0030292009340FA681343A4
:10152C00FB602F497B6A9B080233FA6841F8232041
:10153C003B685B6803F48013002B06D02D4B9A6834
:10154C002C49BB6913438B6006E02A4B9A68BB6934
:10155C00DB43284913408B603B685B6803F4001342
:10156C00002B06D0234BDA682249BB691343CB60AE
:10157C0006E0204BDA68BB69DB431E491340CB60A5
:10158C003B685B6803F40033002B06D0194B5A6898
:10159C001849BB6913434B6006E0164B5A68BB698C
:1015AC00DB43144913404B603B685B6803F48033A6
:1015BC00002B21D00F4B1A680E49BB6913430B60EB
:1015CC0021E000BF0000321000003110000022109A
:1015DC000000211000001210000011100010024039
:1015EC000000014000080140000C014000100140C7
:1015FC0000140140000401400B4B1A68BB69DB432B
:10160C00094913400B607B6A01337B623B681A68A3
:10161C007B6A22FA03F3002B7FF48EAE00BF00BF6F
:10162C002C37BD4680BC70470004014080B483B0A9
:10163C0000AF78600B467B8013467B707B78002B69
:10164C0003D07A887B681A6103E07B881A047B6874
:10165C001A6100BF0C37BD4680BC704780B584B0A2
:10166C0000AF78607B68002B01D101232BE17B68F4
:10167C0093F83D30DBB2002B06D17B68002283F857
:10168C003C207868FEF7E8FD7B68242283F83D2037
:10169C007B681B681A687B681B6822F001021A6061
:1016AC007B681B681A687B681B6842F400421A60EE
:1016BC007B681B681A687B681B6822F400421A60FE
:1016CC0001F03EF8F8607B685B68814A934207D86A
:1016DC00FB68804A934294BF01230023DBB206E0EF
:1016EC00FB687D4A934294BF01230023DBB2002B9D
:1016FC0001D00123E7E0FB68784AA2FB03239B0C93
:10170C00BB607B681B685B6823F03F017B681B68D0
:10171C00BA680A435A607B681B681B6A23F03F0156
:10172C007B685B686A4A934202D8BB68013309E064
:10173C00BB684FF4967202FB03F3694AA2FB0323C6
:10174C009B0901337A6812680B4313627B681B6830
:10175C00DB6923F44F4222F0FF027B685B685C4933
:10176C008B4219D8FB68591E7B685B685B00B1FB28
:10177C00F3F3591C40F6FC730B40002B0AD0FB68AA
:10178C00591E7B685B685B00B1FBF3F30133C3F359
:10179C000B0351E004234FE07B689B68002B11D1B5
:1017AC00FB68581E7B6859680B465B000B44B0FB0A
:1017BC00F3F30133C3F30B03002B0CBF0123002302
:1017CC00DBB212E0FB68581E7B6859680B469B0025
:1017DC000B4499000B44B0FBF3F30133C3F30B033D
:1017EC00002B0CBF01230023DBB2002B01D0012303
:1017FC0022E07B689B68002B0ED1FB68581E7B682F
:10180C0059680B465B000B44B0FBF3F30133C3F395
:10181C000B0343F400430FE0FB68581E7B685968C8
:10182C000B469B000B4499000B44B0FBF3F30133C4
:10183C00C3F30B0343F44043796809681343CB614A
:10184C007B681B681B6823F0C0017B68DA697B68C6
:10185C001B6A1A437B681B680A431A607B681B6807
:10186C009B6823F4034323F0FF037A6811697A68B9
:10187C00D26811437A6812680B4393607B681B68CB
:10188C00DB6823F0FF017B685A697B689B691A430C
:10189C007B681B680A43DA607B681B681A687B6884
:1018AC001B6842F001021A607B6800221A647B6894
:1018BC00202283F83D207B6800221A637B6800227B
:1018CC0083F83E20002318461037BD4680BD00BF6C
:1018DC00A08601007F841E00FF083D0083DE1B43B1
:1018EC00D34D621080B588B002AFF8607A601A46AA
:1018FC000B467B8113463B81FFF726FB7861FB6827
:10190C0093F83D30DBB2202B40F0E0807B690093F4
:10191C00192301227049F86800F064F90346002B82
:10192C0001D00223D3E0FB6893F83C30012B01D1AA
:10193C000223CCE0FB68012283F83C20FB681B6887
:10194C001B6803F00103012B07D0FB681B681A68A6
:10195C00FB681B6842F001021A60FB681B681A687E
:10196C00FB681B6822F400621A60FB68212283F872
:10197C003D20FB68102283F83E20FB6800221A648D
:10198C00FB687A685A62FB683A895A85FB685B8DFA
:10199C009AB2FB681A85FB68504ADA6279897B69CE
:1019AC003A6AF86800F09CF80346002B01D001233A
:1019BC008DE000233B61FB681B685B693B61FB6846
:1019CC001B689B693B613B6966E07A69396AF86818
:1019DC0000F022FA0346002B0DD0FB681B6C042B85
:1019EC0007D1FB681B681A68FB681B6842F400721D
:1019FC001A6001236BE0FB685B6A1A78FB681B6852
:101A0C001A61FB685B6A5A1CFB685A62FB685B8D47
:101A1C009BB2013B9AB2FB685A85FB681B8D013B5C
:101A2C009AB2FB681A85FB681B685B6903F00403B8
:101A3C00042B1BD1FB681B8D002B17D0FB685B6A3A
:101A4C001A78FB681B681A61FB685B6A5A1CFB6896
:101A5C005A62FB685B8D9BB2013B9AB2FB685A855C
:101A6C00FB681B8D013B9AB2FB681A857A69396A4F
:101A7C00F86800F019FA0346002B0DD0FB681B6CBC
:101A8C00042B07D1FB681B681A68FB681B6842F4BF
:101A9C0000721A6001231AE0FB681B8D002B94D195
:101AAC00FB681B681A68FB681B6842F400721A60BA
:101ABC00FB68202283F83D20FB68002283F83E203F
:101ACC00FB68002283F83C20002300E00223184628
:101ADC001837BD4680BD00BF020010000000FFFF9C
:101AEC0080B588B002AFF8607A603B600B467B81B2
:101AFC00FB68DB6A7B617B69082B06D07B69012B59
:101B0C0003D07B6913F5803F08D1FB681B681A680A
:101B1C00FB681B6842F480721A600BE0FB681B6B5D
:101B2C00122B07D1FB681B681A68FB681B6842F410
:101B3C0080721A603B6800937B6800224FF00111A1
:101B4C00F86800F04FF80346002B0DD0FB681B68BB
:101B5C001B6803F48073B3F5807F03D1FB684FF4EB
:101B6C0000721A64032335E0FB681B69B3F5804FE0
:101B7C0008D17B89DBB21A46FB681B6802F0FE02B7
:101B8C001A611BE07B89DB11DBB203F00603DBB2CD
:101B9C0063F00F03DAB2FB681B681A613B687A6862
:101BAC000E49F86800F098F80346002B01D0012389
:101BBC0010E07B89DAB2FB681B681A613B687A68B3
:101BCC000749F86800F088F80346002B01D0012380
:101BDC0000E0002318461837BD4680BD0800010000
:101BEC000200010080B584B000AFF860B9603B60C2
:101BFC001346FB7148E03B68B3F1FF3F44D0FFF75D
:101C0C00A3F90246BB69D31A3A689A4202D33B68DD
:101C1C00002B39D1BB681B0CDBB2012B0DD1FB683F
:101C2C001B685B69DA43BB6813409BB2002B0CBF8B
:101C3C0001230023DBB21A460CE0FB681B689B698E
:101C4C00DA43BB6813409BB2002B0CBF012300236B
:101C5C00DBB21A46FB799A4216D1FB6800221A6352
:101C6C00FB68202283F83D20FB68002283F83E208D
:101C7C00FB681B6C43F02002FB681A64FB680022B3
:101C8C0083F83C20012323E0BB681B0CDBB2012B47
:101C9C000DD1FB681B685B69DA43BB6813409BB2D0
:101CAC00002B0CBF01230023DBB21A460CE0FB68AF
:101CBC001B689B69DA43BB6813409BB2002B0CBFBB
:101CCC0001230023DBB21A46FB799A4293D00023FE
:101CDC0018461037BD4680BD80B584B000AFF860A3
:101CEC00B9607A603B6071E0FB681B685B6903F468
:101CFC008063B3F5806F23D1FB681B681A68FB689F
:101D0C001B6842F400721A60FB681B686FF48062F7
:101D1C005A61FB6800221A63FB68202283F83D207D
:101D2C00FB68002283F83E20FB681B6C43F0040226
:101D3C00FB681A64FB68002283F83C20012367E0EF
:101D4C007B68B3F1FF3F41D0FFF7FEF802463B68DA
:101D5C00D31A7A689A4202D37B68002B36D1BB68BF
:101D6C001B0CDBB2012B0CD1FB681B685B69DA43E3
:101D7C00BB6813409BB2002B14BF01230023DBB2C2
:101D8C000BE0FB681B689B69DA43BB6813409BB292
:101D9C00002B14BF01230023DBB2002B16D0FB68F1
:101DAC0000221A63FB68202283F83D20FB68002286
:101DBC0083F83E20FB681B6C43F02002FB681A641E
:101DCC00FB68002283F83C20012321E0BB681B0C3C
:101DDC00DBB2012B0CD1FB681B685B69DA43BB6877
:101DEC0013409BB2002B14BF01230023DBB20BE08A
:101DFC00FB681B689B69DA43BB6813409BB2002BE2
:101E0C0014BF01230023DBB2002B7FF46DAF002342
:101E1C0018461037BD4680BD80B584B000AFF86061
:101E2C00B9607A6034E0F86800F086F80346002B5D
:101E3C0001D0012334E0BB68B3F1FF3F28D0FFF79A
:101E4C0083F802467B68D31ABA689A4202D3BB68FD
:101E5C00002B1DD1FB681B685B6903F08003802B92
:101E6C0016D0FB6800221A63FB68202283F83D2001
:101E7C00FB68002283F83E20FB681B6C43F02002B9
:101E8C00FB681A64FB68002283F83C20012307E0FE
:101E9C00FB681B685B6903F08003802BC3D10023B4
:101EAC0018461037BD4680BD80B584B000AFF860D1
:101EBC00B9607A6034E0F86800F03EF80346002B15
:101ECC0001D0012334E0BB68B3F1FF3F28D0FFF70A
:101EDC003BF802467B68D31ABA689A4202D3BB68B5
:101EEC00002B1DD1FB681B685B6903F00403042BFA
:101EFC0016D0FB6800221A63FB68202283F83D2071
:101F0C00FB68002283F83E20FB681B6C43F0200228
:101F1C00FB681A64FB68002283F83C20012307E06D
:101F2C00FB681B685B6903F00403042BC3D100231B
:101F3C0018461037BD4680BD80B483B000AF7860C2
:101F4C007B681B685B6903F48063B3F5806F1BD1FE
:101F5C007B681B686FF480625A617B6800221A638D
:101F6C007B68202283F83D207B68002283F83E208A
:101F7C007B681B6C43F004027B681A647B6800224C
:101F8C0083F83C20012300E0002318460C37BD46A3
:101F9C0080BC704780B400AF034B01221A6000BFB5
:101FAC00BD4680BC704700BF20000E4280B586B095
:101FBC0000AF78607B68002B01D1012372E27B6853
:101FCC001B6803F00103002B00F08780924B5B68C9
:101FDC0003F00C03042B0CD08F4B5B6803F00C0349
:101FEC00082B12D18C4B5B6803F48033B3F5803F24
:101FFC000BD1894B1B6803F40033002B6CD07B682E
:10200C005B68002B68D101234CE27B685B68B3F5FD
:10201C00803F06D1804B1B687F4A43F480331360AA
:10202C002EE07B685B68002B0CD17B4B1B687A4ADB
:10203C0023F480331360784B1B68774A23F4802396
:10204C0013601DE07B685B68B3F5A02F0CD1724B5D
:10205C001B68714A43F4802313606F4B1B686E4AF4
:10206C0043F4803313600BE06B4B1B686A4A23F418
:10207C0080331360684B1B68674A23F4802313601A
:10208C007B685B68002B13D0FEF75EFF386108E0BD
:10209C00FEF75AFF02463B69D31A642B01D903237E
:1020AC0000E25D4B1B6803F40033002BF0D014E00E
:1020BC00FEF74AFF386108E0FEF746FF02463B692F
:1020CC00D31A642B01D90323ECE1534B1B6803F4A3
:1020DC000033002BF0D100E000BF7B681B6803F0DD
:1020EC000203002B63D04C4B5B6803F00C03002BFA
:1020FC000BD0494B5B6803F00C03082B1CD1464BEF
:10210C005B6803F48033002B16D1434B1B6803F040
:10211C000203002B05D07B681B69012B01D0012326
:10212C00C0E13D4B1B6823F0F8027B685B69DB0068
:10213C00394913430B603AE07B681B69002B20D0B4
:10214C00364B01221A60FEF7FFFE386108E0FEF7FD
:10215C00FBFE02463B69D31A022B01D90323A1E1F2
:10216C002D4B1B6803F00203002BF0D02A4B1B688D
:10217C0023F0F8027B685B69DB00274913430B6093
:10218C0015E0264B00221A60FEF7DEFE386108E0EF
:10219C00FEF7DAFE02463B69D31A022B01D9032360
:1021AC0080E11D4B1B6803F00203002BF0D17B6810
:1021BC001B6803F00803002B3AD07B689B69002B4B
:1021CC0019D0174B01221A60FEF7BEFE386108E0E9
:1021DC00FEF7BAFE02463B69D31A022B01D9032340
:1021EC0060E10D4B5B6A03F00203002BF0D0012081
:1021FC0000F0CEFA1CE00A4B00221A60FEF7A4FE97
:10220C0038610FE0FEF7A0FE02463B69D31A022BA1
:10221C0008D9032346E100BF0010024000004242EF
:10222C0080044242924B5B6A03F00203002BE9D11B
:10223C007B681B6803F00403002B00F0A6800023CE
:10224C00FB758B4BDB6903F08053002B0DD1884B56
:10225C00DB69874A43F08053D361854BDB6903F01C
:10226C008053BB60BB680123FB75824B1B6803F476
:10227C008073002B18D17F4B1B687E4A43F480730C
:10228C001360FEF761FE386108E0FEF75DFE024662
:10229C003B69D31A642B01D9032303E1754B1B68EB
:1022AC0003F48073002BF0D07B68DB68012B06D124
:1022BC006F4B1B6A6E4A43F0010313622DE07B687F
:1022CC00DB68002B0CD16A4B1B6A694A23F00103B3
:1022DC001362674B1B6A664A23F0040313621CE00B
:1022EC007B68DB68052B0CD1614B1B6A604A43F0A1
:1022FC00040313625E4B1B6A5D4A43F001031362D5
:10230C000BE05B4B1B6A5A4A23F001031362584BD8
:10231C001B6A574A23F0040313627B68DB68002BAB
:10232C0015D0FEF711FE38610AE0FEF70DFE0246ED
:10233C003B69D31A41F28832934201D90323B1E0AD
:10234C004B4B1B6A03F00203002BEED014E0FEF79C
:10235C00FBFD38610AE0FEF7F7FD02463B69D31A34
:10236C0041F28832934201D903239BE0404B1B6A14
:10237C0003F00203002BEED1FB7D012B05D13C4B6E
:10238C00DB693B4A23F08053D3617B68DB69002B0C
:10239C0000F08780364B5B6803F00C03082B61D090
:1023AC007B68DB69022B46D1334B00221A60FEF7A7
:1023BC00CBFD386108E0FEF7C7FD02463B69D31A36
:1023CC00022B01D903236DE0294B1B6803F000732A
:1023DC00002BF0D17B681B6AB3F5803F08D1244BEE
:1023EC005B6823F400327B689B68214913434B6084
:1023FC001F4B5B6823F474127B68196A7B685B6AF9
:10240C000B431B4913434B601B4B01221A60FEF715
:10241C009BFD386108E0FEF797FD02463B69D31A35
:10242C00022B01D903233DE0114B1B6803F0007311
:10243C00002BF0D035E0104B00221A60FEF784FD23
:10244C00386108E0FEF780FD02463B69D31A022B87
:10245C0001D9032326E0064B1B6803F00073002B05
:10246C00F0D11EE07B68DB69012B07D1012319E059
:10247C000010024000700040600042420B4B5B6851
:10248C00FB60FB6803F480327B681B6A9A4206D1BE
:10249C00FB6803F470127B685B6A9A4201D00123DB
:1024AC0000E0002318461837BD4680BD00100240DE
:1024BC0080B584B000AF786039607B68002B01D1A7
:1024CC000123D0E06A4B1B6803F007033A689A4279
:1024DC0010D9674B1B6823F0070265493B6813430F
:1024EC000B60634B1B6803F007033A689A4201D0F8
:1024FC000123B8E07B681B6803F00203002B20D09B
:10250C007B681B6803F00403002B05D0594B5B68F8
:10251C00584A43F4E06353607B681B6803F008037C
:10252C00002B05D0534B5B68524A43F46053536005
:10253C00504B5B6823F0F0027B689B684D4913435A
:10254C004B607B681B6803F00103002B40D07B6859
:10255C005B68012B07D1474B1B6803F40033002B3E
:10256C0015D101237FE07B685B68022B07D1414BBF
:10257C001B6803F00073002B09D1012373E03D4B62
:10258C001B6803F00203002B01D101236BE0394BD4
:10259C005B6823F003027B685B68364913434B602E
:1025AC00FEF7D2FCF8600AE0FEF7CEFC0246FB68B0
:1025BC00D31A41F28832934201D9032353E02D4BB5
:1025CC005B6803F00C027B685B689B009A42EBD162
:1025DC00274B1B6803F007033A689A4210D2244B2E
:1025EC001B6823F0070222493B6813430B60204B06
:1025FC001B6803F007033A689A4201D0012332E0CA
:10260C007B681B6803F00403002B08D0194B5B6834
:10261C0023F4E0627B68DB68164913434B607B68EC
:10262C001B6803F00803002B09D0124B5B6823F4E2
:10263C0060527B681B69DB000E4913434B6000F052
:10264C0021F802460B4B5B681B0903F00F030A4988
:10265C00CB5C22FA03F3094A1360094B1B6818463A
:10266C00FEF730FC002318461037BD4680BD00BF76
:10267C0000200240001002400C5C0008000000200A
:10268C000400002080B487B000AF0023FB6000235F
:10269C00BB6000237B6100237B6000233B611E4BEE
:1026AC005B68FB60FB6803F00C03042B02D0082B67
:1026BC0003D027E0194B3B6127E0FB689B0C03F030
:1026CC000F03174AD35C7B60FB6803F48033002B49
:1026DC0010D0114B5B685B0C03F00103114AD35C07
:1026EC00BB607B680D4A03FB02F2BB68B2FBF3F3E1
:1026FC007B6104E07B680C4A02FB03F37B617B6922
:10270C003B6102E0054B3B6100BF3B6918461C373F
:10271C00BD4680BC704700BF0010024000127A001A
:10272C00245C0008345C000800093D0080B400AF54
:10273C00024B1B681846BD4680BC70470000002049
:10274C0080B500AFFFF7F2FF0246054B5B681B0A32
:10275C0003F007030349CB5C22FA03F3184680BD50
:10276C00001002401C5C000880B500AFFFF7DEFFD4
:10277C000246054B5B68DB0A03F007030349CB5C9D
:10278C0022FA03F3184680BD001002401C5C0008BE
:10279C0080B485B000AF78600A4B1B680A4AA2FB74
:1027AC0003235B0A7A6802FB03F3FB6000BFFB6840
:1027BC005A1EFA60002BF9D100BF00BF1437BD467A
:1027CC0080BC704700000020D34D621080B586B0ED
:1027DC0000AF786000233B610023FB607B681B68C3
:1027EC0003F00103002B7DD00023FB754F4BDB69FD
:1027FC0003F08053002B0DD14C4BDB694B4A43F05B
:10280C008053D361494BDB6903F08053BB60BB68D9
:10281C000123FB75464B1B6803F48073002B18D106
:10282C00434B1B68424A43F480731360FEF78CFBE6
:10283C00386108E0FEF788FB02463B69D31A642B2B
:10284C0001D903236DE03A4B1B6803F48073002B12
:10285C00F0D0364B1B6A03F44073FB60FB68002B13
:10286C002ED07B685B6803F44073FA689A4227D0D9
:10287C002E4B1B6A23F44073FB602E4B01221A6013
:10288C002C4B00221A60294AFB681362FB6803F088
:10289C000103002B14D0FEF757FB38610AE0FEF75A
:1028AC0053FB02463B69D31A41F28832934201D959
:1028BC00032336E01D4B1B6A03F00203002BEED002
:1028CC001A4B1B6A23F440727B685B6817491343ED
:1028DC000B62FB7D012B05D1144BDB69134A23F0F2
:1028EC008053D3617B681B6803F00203002B08D074
:1028FC000E4B5B6823F440427B689B680B49134387
:10290C004B607B681B6803F01003002B08D0074B4F
:10291C005B6823F480027B68DB68044913434B60DB
:10292C00002318461837BD4680BD00BF001002407A
:10293C00007000404004424280B588B000AF78601F
:10294C0000237B610023FB6100233B610023FB60C0
:10295C000023BB617B68102B0AD07B68102B00F224
:10296C008A807B68012B45D07B68022B75D082E076
:10297C00464B5B68FB60454B1B6803F08073002B78
:10298C007BD0FB689B0C03F00F03414AD35C3B618B
:10299C00FB6803F48033002B15D03C4B5B685B0C5D
:1029AC0003F001033B4AD35C7B61FB6803F4803387
:1029BC00002B0DD0384A7B69B2FBF3F23B6902FB6A
:1029CC0003F3FB6104E03B69344A02FB03F3FB6154
:1029DC002E4B5B6803F48003B3F5800F02D1FB69C7
:1029EC00BB614AE0FB695B002D4AA2FB03235B0839
:1029FC00BB6142E0254B1B6AFB60FB6803F4407330
:102A0C00B3F5807F08D1FB6803F00203002B03D0E1
:102A1C004FF40043BB611FE0FB6803F44073B3F554
:102A2C00007F09D1194B5B6A03F00203002B03D022
:102A3C0049F64043BB610FE0FB6803F44073B3F508
:102A4C00407F1CD1114B1B6803F40033002B16D0B4
:102A5C004FF22443BB6112E011E0FFF785FE024602
:102A6C000A4B5B689B0B03F0030301335B00B2FB67
:102A7C00F3F3BB6104E000BF02E000BF00E000BF65
:102A8C00BB6918462037BD4680BD00BF0010024010
:102A9C00385C0008485C000800127A0000093D0010
:102AAC00ABAAAAAA80B584B000AF78600023FB6003
:102ABC007B68002B01D101237AE07B685B7CDBB265
:102ACC00002B05D17B6800221A747868FEF70EF88B
:102ADC007B6802225A74786800F0EAFA0346002BED
:102AEC0004D07B6804225A74012361E0786800F0FA
:102AFC00A3FB0346002B04D07B6804225A740123E9
:102B0C0056E07B681B685A687B681B6822F00702DA
:102B1C005A607B689B68002B05D0274B1B6B264AA1
:102B2C0023F001031363244BDB6A23F460727B688C
:102B3C009B6821491343CB627B685B68B3F1FF3F11
:102B4C0003D07B685B68FB600EE00120FFF7F4FEAE
:102B5C00F860FB68002B04D17B6804225A740123B3
:102B6C0026E0FB68013BFB60FB681A0C7B681B686A
:102B7C0002F00F029A607B681B68FA6892B2DA6006
:102B8C00786800F081FB0346002B04D07B6804229C
:102B9C005A7401230CE07B680022DA737B680122F3
:102BAC005A737B6801229A737B6801225A74002342
:102BBC0018461037BD4680BD006C004090B587B0FC
:102BCC0000AFF860B9607A6000237B6100233B6141
:102BDC00FB68002B02D0BB68002B01D1012380E0E5
:102BEC00FB681B7C012B01D102237AE0FB680122DC
:102BFC001A74FB6802225A747B68002B13D1BB68D1
:102C0C001B781A464FF4616303FB02F2BB685B78D6
:102C1C0019460B461B015B1A9B001344BA68927849
:102C2C0013447B611EE0BB681B78184600F071FBF7
:102C3C0003461A464FF4616303FB02F4BB685B78EE
:102C4C00184600F066FB03461A4613461B019B1AF6
:102C5C009B001C44BB689B78184600F05AFB03464B
:102C6C0023447B617969F86800F07FFA0346002BF6
:102C7C0007D0FB6804225A74FB6800221A740123E3
:102C8C002FE0FB681B685A68FB681B6822F0050282
:102C9C005A60F86800F090FA38613B69B3F1FF3F75
:102CAC0018D03A697B699A4214D23B6903F5A83370
:102CBC0003F5C0733B613969F86800F096FA034676
:102CCC00002B07D0FB6804225A74FB6800221A748C
:102CDC00012306E0FB6801225A74FB6800221A7477
:102CEC00002318461C37BD4690BD000080B588B047
:102CFC0000AFF860B9607A600023BB610023FB6110
:102D0C0000237B6100233B61FB68002B02D0BB6876
:102D1C00002B01D10123B5E0FB681B685B6803F055
:102D2C000403002B01D00123ACE0F86800F0EDF9AE
:102D3C00B861BB69554AA2FB0323DB0A3B61BA6944
:102D4C00524BA3FB0213DB0A4FF4616101FB03F34B
:102D5C00D31A4F4AA2FB03235B09DAB2BB685A7041
:102D6C00BB694A4AA2FB0312D20A4FF4616101FB10
:102D7C0002F29A1A464BA3FB021359090B461B018C
:102D8C005B1A9B00D11ACAB2BB689A703B69172BAD
:102D9C0055D93B693F4AA2FB03231B097B61396967
:102DAC003C4BA3FB01231A0913465B001344DB00C5
:102DBC00CA1AD2B2BB681A70F86800F0FDF9F86153
:102DCC00FB69B3F1FF3F08D0FA69BB699A4204D999
:102DDC00FA69BB69D31AFB6102E04FF0FF33FB6168
:102DEC007B692D4A02FB03F3BA69D31ABB61B9693B
:102DFC00F86800F0BAF90346002B01D0012341E03A
:102E0C00FB69B3F1FF3F0CD0FA69BB691344FB615A
:102E1C00F969F86800F0E9F90346002B0AD00123A0
:102E2C0030E0F969F86800F0E0F90346002B01D0B6
:102E3C00012327E07969F86800F088FA03E03B6920
:102E4C00DAB2BB681A707B68002B1AD0BB681B788F
:102E5C00184600F041FA03461A46BB681A70BB6864
:102E6C005B78184600F038FA03461A46BB685A706D
:102E7C00BB689B78184600F02FFA03461A46BB68CD
:102E8C009A70002318462037BD4680BDC5B3A29169
:102E9C0089888888ABAAAAAA8051010080B588B01D
:102EAC0000AFF860B9607A600023FB610023BB615E
:102EBC0000237B61FB68002B02D0BB68002B01D187
:102ECC00012397E0FB681B7C012B01D1022391E0CD
:102EDC00FB6801221A74FB6802225A747B68002B6F
:102EEC000CD1BB68DA78FB68DA73BB685A78FB687C
:102EFC005A73BB689A78FB689A731AE0BB68DB78E4
:102F0C00184600F006FA03461A46FB68DA73BB68EB
:102F1C005B78184600F0FDF903461A46FB685A73B5
:102F2C00BB689B78184600F0F4F903461A46FB6818
:102F3C009A73FB68DB7B1846FB68597BFB689B7BB1
:102F4C001A4600F0DFFA03461A46FB681A73FB6850
:102F5C001A7BBB681A70F86800F0D7F8F861FB6947
:102F6C00264AA2FB0323DB0A7B617B69182B3AD927
:102F7C007B69234AA2FB03231B09224A02FB03F3AE
:102F8C00FA69D31AFB61F969F86800F0EEF80346A8
:102F9C00002B07D0FB6804225A74FB6800221A74B9
:102FAC00012327E0F86800F007F9B861BB69B3F1B9
:102FBC00FF3F18D0BA69FB699A4214D2BB6903F57A
:102FCC00A83303F5C073BB61B969F86800F00DF95B
:102FDC000346002B07D0FB6804225A74FB680022BE
:102FEC001A74012306E0FB6801225A74FB68002264
:102FFC001A74002318462037BD4680BDC5B3A29174
:10300C00ABAAAAAA8051010080B586B000AFF860C7
:10301C00B9607A6007F1140300210A461A800A4647
:10302C009A70FB68002B02D0BB68002B01D10123E6
:10303C003AE007F1140300221946F868FFF756FE30
:10304C000346002B01D001232EE0FB681A7BBB68E2
:10305C001A70FB68DA7BBB68DA70FB685A7BBB685A
:10306C005A70FB689A7BBB689A707B68002B1AD0ED
:10307C00BB68DB78184600F02FF903461A46BB688C
:10308C00DA70BB685B78184600F026F903461A46DE
:10309C00BB685A70BB689B78184600F01DF9034654
:1030AC001A46BB689A70002318461837BD4680BD77
:1030BC0080B584B000AF78600023FB607B68002B88
:1030CC0001D101231DE07B681B685A687B681B6873
:1030DC0022F008025A60FDF737FFF86009E0FDF7AF
:1030EC0033FF0246FB68D31AB3F57A7F01D9032369
:1030FC0007E07B681B685B6803F00803002BEED0CD
:10310C00002318461037BD4680BD80B487B000AF91
:10311C00786000237B8200233B820023FB81002309
:10312C007B617B681B689B697B827B681B68DB69A6
:10313C00FB817B681B689B693B827A8A3B8A9A423B
:10314C0008D03B8A1A047B681B68DB699BB213436B
:10315C007B6104E07B8A1A04FB8913437B617B69E6
:10316C0018461C37BD4680BC704780B584B000AF94
:10317C00786039600023FB73786800F05DF80346D3
:10318C00002B02D00123FB7311E07B681B683A68AB
:10319C00120C9A617B681B683A6892B2DA617868A3
:1031AC0000F072F80346002B01D00123FB73FB7B6C
:1031BC0018461037BD4680BD80B485B000AF78602E
:1031CC000023FB810023BB817B681B681B6AFB818E
:1031DC007B681B685B6ABB81FB891A04BB89134340
:1031EC0018461437BD4680BC704780B584B000AF1C
:1031FC00786039600023FB73786800F01DF8034693
:10320C00002B02D00123FB7311E07B681B683A682A
:10321C00120C1A627B681B683A6892B25A62786820
:10322C0000F032F80346002B01D00123FB73FB7B2B
:10323C0018461037BD4680BD80B584B000AF7860AD
:10324C000023FB60FDF780FEF86009E0FDF77CFED3
:10325C000246FB68D31AB3F57A7F01D903230FE03A
:10326C007B681B685B6803F02003002BEED07B6847
:10327C001B685A687B681B6842F010025A60002376
:10328C0018461037BD4680BD80B584B000AF78605D
:10329C000023FB607B681B685A687B681B6822F004
:1032AC0010025A60FDF750FEF86009E0FDF74CFE85
:1032BC000246FB68D31AB3F57A7F01D9032307E0E2
:1032CC007B681B685B6803F02003002BEED00023A7
:1032DC0018461037BD4680BD80B485B000AF03469C
:1032EC00FB710023FB6005E0FB680133FB60FB799D
:1032FC000A3BFB71FB79092BF6D8FB68DBB21B018F
:10330C00DAB2FB791343DBB218461437BD4680BCE6
:10331C00704780B485B000AF0346FB710023FB609F
:10332C00FB791B09DBB21A4613469B0013445B0066
:10333C00FB60FB7903F00F03DAB2FB68DBB21344DA
:10334C00DBB218461437BD4680BC704780B586B0DA
:10335C0000AF7860396000237B6100233B61002360
:10336C00FB600023BB607B68DB7B7B617B685B7BEA
:10337C003B617B689B7BFB600023BB606FE03B6920
:10338C00012B11D03B69032B0ED03B69052B0BD0C5
:10339C003B69072B08D03B69082B05D03B690A2BEE
:1033AC0002D03B690C2B17D1FB681E2B03D8FB6892
:1033BC000133FB6050E03B690C2B05D03B690133BA
:1033CC003B610123FB6047E001233B610123FB6070
:1033DC007B6901337B613FE03B69042B08D03B697F
:1033EC00062B05D03B69092B02D03B690B2B0CD16A
:1033FC00FB681D2B03D8FB680133FB602CE03B6999
:10340C0001333B610123FB6026E03B69022B23D196
:10341C00FB681B2B03D8FB680133FB601CE0FB68CB
:10342C001C2B11D17B699BB2184600F039F803466E
:10343C00002B03D0FB680133FB600DE03B690133CB
:10344C003B610123FB6007E0FB681D2B04D13B694A
:10345C0001333B610123FB60BB680133BB60BA687D
:10346C003B689A428BD37B69DAB27B68DA733B692F
:10347C00DAB27B685A73FB68DAB27B689A733B6981
:10348C00DBB2FA68D2B21946786900F03BF8034611
:10349C001A467B681A7300BF1837BD4680BD000002
:1034AC0080B483B000AF0346FB80FB8803F00303BA
:1034BC009BB2002B01D000231DE0FB88104AA2FB1D
:1034CC0003125209642101FB02F29B1A9BB2002BDE
:1034DC0001D001230FE0FB88094AA2FB0312D20999
:1034EC004FF4C87101FB02F29B1A9BB2002B01D165
:1034FC00012300E0002318460C37BD4680BC704702
:10350C001F85EB5180B485B000AF78600B46FB7023
:10351C001346BB700023BB600023FB607B6803F584
:10352C00FA63BB60FB78022B2DD8FA7813465B004C
:10353C001344DB009B1A2C4AA2FB03235A08BB78CA
:10354C001A44BB681A44BB68013B9B081A44BB680D
:10355C00013B2649A1FB03135B09D21ABB68013B53
:10356C002249A1FB0313DB0913441A1D204BA3FBB7
:10357C000213D11A49080B4499080B46DB005B1A5D
:10358C00D31AFB6029E0FA7813465B001344DB0086
:10359C009B1A154AA2FB03235A08BB781A44BB6832
:1035AC001A44BB689B081A44BB681049A1FB03135F
:1035BC005B09D21ABB680D49A1FB0313DB09134449
:1035CC009A1C0B4BA3FB0213D11A49080B44990804
:1035DC000B46DB005B1AD31AFB60FB68DBB21846A8
:1035EC001437BD4680BC7047398EE3381F85EB51CC
:1035FC002549922480B487B000AFF860B9607A6036
:10360C0000237B61074B7B61BB689B007A69134489
:10361C007B617B697A6892B21A6000BF1C37BD4629
:10362C0080BC7047006C004080B485B000AF7860FF
:10363C0039600023FB600023BB60084BFB603B68D8
:10364C009B00FA681344FB60FB681B689BB2BB6071
:10365C00BB6818461437BD4680BC7047006C0040F0
:10366C0080B582B000AF78607B68002B01D101235C
:10367C0042E07B6893F84130DBB2002B06D17B68CB
:10368C00002283F840207868FDF78CFB7B682422AD
:10369C0083F841207B681B68DA687B681B6822F41E
:1036AC000052DA60786800F0D5FC7B681B681A69F8
:1036BC007B681B6822F490421A617B681B685A690C
:1036CC007B681B6822F02A025A617B681B68DA68E7
:1036DC007B681B6842F40052DA607B6800225A64F3
:1036EC007B68202283F841207B68202283F84220CB
:1036FC007B6800225A63002318460837BD4680BDFC
:10370C0080B584B000AFF860B9601346FB80FB68ED
:10371C0093F84230DBB2202B12D1BB68002B02D0C5
:10372C00FB88002B01D101230BE0FB6800221A63FC
:10373C00FB881A46B968F86800F0B7FA034600E04F
:10374C00022318461037BD4680BD000080B5BAB0C4
:10375C0000AF78607B681B681B68C7F8E4307B6837
:10376C001B68DB68C7F8E0307B681B685B69C7F8CF
:10377C00DC300023C7F8D8300023C7F8D430D7F892
:10378C00E43003F00F03C7F8D830D7F8D830002B4B
:10379C000FD1D7F8E43003F02003002B09D0D7F871
:1037AC00E03003F02003002B03D0786800F093FB8B
:1037BC005BE2D7F8D830002B00F0DE80D7F8DC3095
:1037CC0003F00103002B06D1D7F8E03003F490731B
:1037DC00002B00F0D180D7F8E43003F00103002B6C
:1037EC000BD0D7F8E03003F48073002B05D07B6846
:1037FC005B6C43F001027B685A64D7F8E43003F049
:10380C000403002B0BD0D7F8DC3003F00103002BA2
:10381C0005D07B685B6C43F002027B685A64D7F876
:10382C00E43003F00203002B0BD0D7F8DC3003F0AC
:10383C000103002B05D07B685B6C43F004027B68B2
:10384C005A64D7F8E43003F00803002B11D0D7F8F2
:10385C00E03003F02003002B05D1D7F8DC3003F067
:10386C000103002B05D07B685B6C43F008027B687E
:10387C005A647B685B6C002B00F0F281D7F8E43063
:10388C0003F02003002B08D0D7F8E03003F020031E
:10389C00002B02D0786800F01EFB7B681B685B690C
:1038AC0003F04003002B14BF01230023DBB2C7F845
:1038BC00D4307B685B6C03F00803002B03D1D7F882
:1038CC00D430002B4FD0786800F028FA7B681B6846
:1038DC005B6903F04003002B41D07B681B681433F9
:1038EC00C7F89C30D7F89C3053E8003FC7F89830A5
:1038FC00D7F8983023F04003C7F8D0307B681B68AA
:10390C001433D7F8D020C7F8A820C7F8A430D7F8BC
:10391C00A410D7F8A82041E80023C7F8A030D7F8A6
:10392C00A030002BD9D17B68DB6B002B13D07B68CC
:10393C00DB6B7E4A5A637B68DB6B1846FDF77AFCBF
:10394C000346002B16D07B68DB6B5B6B7A68D26B03
:10395C00104698470EE0786800F093F90AE0786812
:10396C0000F08FF906E0786800F08BF97B68002294
:10397C005A6475E100BF73E17B681B6B012B40F04F
:10398C004F81D7F8E43003F01003002B00F048818E
:10399C00D7F8E03003F01003002B00F04181002336
:1039AC00BB607B681B681B68BB607B681B685B68C3
:1039BC00BB60BB687B681B685B6903F04003002B32
:1039CC0000F0B6807B68DB6B1B685B68A7F8BE30C9
:1039DC00B7F8BE30002B00F045817B689B8DB7F8A3
:1039EC00BE209A4280F03E817B68B7F8BE20DA8513
:1039FC007B68DB6B9B69202B00F088807B681B68E5
:103A0C000C33C7F88830D7F8883053E8003FC7F834
:103A1C008430D7F8843023F48073C7F8B8307B68CF
:103A2C001B680C33D7F8B820C7F89420C7F890302F
:103A3C00D7F89010D7F8942041E80023C7F88C30C1
:103A4C00D7F88C30002BD9D17B681B6814337B677B
:103A5C007B6F53E8003F3B673B6F23F00103C7F8D4
:103A6C00B4307B681B681433D7F8B420C7F88020B7
:103A7C00FB67F96FD7F8802041E80023BB67BB6F69
:103A8C00002BE1D17B681B6814333B663B6E53E81B
:103A9C00003FFB65FB6D23F04003C7F8B0307B683B
:103AAC001B681433D7F8B020FA66BB66B96EFA6E91
:103ABC0041E800237B667B6E002BE3D17B682022E0
:103ACC0083F842207B6800221A637B681B680C33E6
:103ADC00FB64FB6C53E8003FBB64BB6C23F010032E
:103AEC00C7F8AC307B681B680C33D7F8AC20BA65D0
:103AFC007B65796DBA6D41E800233B653B6D002B0E
:103B0C00E3D17B68DB6B1846FDF759FB7B6802221F
:103B1C005A637B689A8D7B68DB8D9BB2D31A9BB200
:103B2C001946786800F0B6F89CE000BFED3D00083F
:103B3C007B689A8D7B68DB8D9BB2D31AA7F8CE304D
:103B4C007B68DB8D9BB2002B00F08E80B7F8CE30FB
:103B5C00002B00F089807B681B680C33BB63BB6B4C
:103B6C0053E8003F7B637B6B23F49073C7F8C8303A
:103B7C007B681B680C33D7F8C8207A643B64396CBB
:103B8C007A6C41E80023FB63FB6B002BE3D17B6871
:103B9C001B6814337B627B6A53E8003F3B623B6AD1
:103BAC0023F00103C7F8C4307B681B681433D7F8C3
:103BBC00C4203A63FB62F96A3A6B41E80023BB62AA
:103BCC00BB6A002BE3D17B68202283F842207B6800
:103BDC0000221A637B681B680C333B613B6953E81A
:103BEC00003FFB60FB6823F01003C7F8C0307B6814
:103BFC001B680C33D7F8C020FA61BB61B969FA694C
:103C0C0041E800237B617B69002BE3D17B680222B6
:103C1C005A63B7F8CE301946786800F03BF823E0C9
:103C2C00D7F8E43003F08003002B09D0D7F8E0304C
:103C3C0003F08003002B03D0786800F0E5F814E063
:103C4C00D7F8E43003F04003002B0ED0D7F8E03067
:103C5C0003F04003002B08D0786800F024F904E04E
:103C6C0000BF02E000BF00E000BFE837BD4680BDEA
:103C7C0080B483B000AF786000BF0C37BD4680BC09
:103C8C00704780B483B000AF786000BF0C37BD467E
:103C9C0080BC704780B483B000AF78600B467B80EB
:103CAC0000BF0C37BD4680BC704780B485B000AFF8
:103CBC00F860B9601346FB80FB68BA689A62FB68CF
:103CCC00FA889A85FB68FA88DA85FB6800225A64C0
:103CDC00FB68222283F84220FB681B69002B07D06B
:103CEC00FB681B68DA68FB681B6842F48072DA6058
:103CFC00FB681B685A69FB681B6842F001025A6139
:103D0C00FB681B68DA68FB681B6842F02002DA600B
:103D1C00002318461437BD4680BC704780B495B05C
:103D2C0000AF78607B681B680C337B637B6B53E85C
:103D3C00003F3B633B6B23F49073FB647B681B6815
:103D4C000C33FA6C3A64FB63F96B3A6C41E8002370
:103D5C00BB63BB6B002BE5D17B681B6814333B62E8
:103D6C003B6A53E8003FFB61FB6923F00103BB6432
:103D7C007B681B681433BA6CFA62BB62B96AFA6A64
:103D8C0041E800237B627B6A002BE5D17B681B6BCF
:103D9C00012B19D17B681B680C33FB60FB6853E863
:103DAC00003FBB60BB6823F010037B647B681B681F
:103DBC000C337A6CBA617B617969BA6941E800238A
:103DCC003B613B69002BE5D17B68202283F84220C4
:103DDC007B6800221A6300BF5437BD4680BC704715
:103DEC0080B584B000AF78607B685B6AFB60FB6871
:103DFC000022DA85FB680022DA84F868FFF741FFBD
:103E0C0000BF1037BD4680BD80B485B000AF786070
:103E1C007B6893F84130DBB2212B3ED17B689B68E9
:103E2C00B3F5805F14D17B681B69002B10D17B68C4
:103E3C001B6AFB60FB681B881A467B681B68C2F315
:103E4C0008025A607B681B6A9A1C7B681A6208E03D
:103E5C007B681B6A591C7A6811621A787B681B682C
:103E6C005A607B68DB8C9BB2013B9BB27A6819462B
:103E7C00D184002B0FD17B681B68DA687B681B68C8
:103E8C0022F08002DA607B681B68DA687B681B684A
:103E9C0042F04002DA60002300E002231846143797
:103EAC00BD4680BC704780B582B000AF78607B683F
:103EBC001B68DA687B681B6822F04002DA607B685A
:103ECC00202283F841207868FFF7D2FE00231846A1
:103EDC000837BD4680BD80B58CB000AF78607B687C
:103EEC0093F84230DBB2222B40F0AE807B689B68AB
:103EFC00B3F5805F17D17B681B69002B13D10023AE
:103F0C00FB627B689B6ABB627B681B685B689BB2CD
:103F1C00C3F308039AB2BB6A1A807B689B6A9A1C2B
:103F2C007B689A6226E07B689B6AFB620023BB621B
:103F3C007B689B68B3F5805F07D07B689B68002B20
:103F4C000AD17B681B69002B06D17B681B685B68F8
:103F5C00DAB2FB6A1A7008E07B681B685B68DBB23C
:103F6C0003F07F03DAB2FB6A1A707B689B6A5A1CF7
:103F7C007B689A627B68DB8D9BB2013B9BB27A6853
:103F8C001946D185002B5DD17B681B68DA687B688C
:103F9C001B6822F02002DA607B681B68DA687B6899
:103FAC001B6822F48072DA607B681B685A697B6834
:103FBC001B6822F001025A617B68202283F84220A0
:103FCC007B6800225A637B681B6B012B35D17B68A5
:103FDC0000221A637B681B680C337B617B6953E896
:103FEC00003F3B613B6923F010037B627B681B68DD
:103FFC000C337A6A3A62FB61F9693A6A41E8002348
:10400C00BB61BB69002BE5D17B681B681B6803F0A7
:10401C001003102B0AD10023FB607B681B681B6804
:10402C00FB607B681B685B68FB60FB687B689B8D37
:10403C0019467868FFF72EFE02E07868FCF75CFB07
:10404C00002302E0002300E0022318463037BD466F
:10405C0080BD000080B584B000AF78607B681B68C1
:10406C001B6923F440517B68DA687B681B680A4340
:10407C001A617B689A687B681B691A437B685B6969
:10408C001343BB607B681B68DB6823F4B05323F0DD
:10409C000C037A681268B9680B43D3607B681B68A1
:1040AC005B6923F440717B689A697B681B680A43DF
:1040BC005A617B681B682C4A934203D1FEF754FB70
:1040CC00F86002E0FEF73CFBF860FA6813469B00D0
:1040DC0013449A001A447B685B689B00B2FBF3F3B1
:1040EC00224AA2FB03235B091901FA6813469B00C1
:1040FC0013449A001A447B685B689B00B2FBF3F292
:10410C001A4BA3FB02035B09642000FB03F3D31AD5
:10411C001B013233154AA2FB03235B0903F0F003A6
:10412C001944FA6813469B0013449A001A447B689E
:10413C005B689B00B2FBF3F20C4BA3FB02035B0925
:10414C00642000FB03F3D31A1B013233074AA2FB92
:10415C0003235B0903F00F027B681B680A449A6017
:10416C0000BF1037BD4680BD003801401F85EB51A4
:10417C00002310B50446C0E90033C0E90433836062
:10418C0081814366C2818361194608225C3000F04C
:10419C0037FA0D4B246263620C4BA3620C4BE36247
:1041AC000C4B23630C4B9C4206D003F168029442E7
:1041BC0002D0D0339C4205D104F15800BDE8104028
:1041CC0000F096BA10BD00BF594400087F440008A7
:1041DC00B7440008DB4400088C010020024A034964
:1041EC00034800F069B800BF0C000020F55500082A
:1041FC001C00002041680C4B10B59942044601D0BC
:10420C0001F0F2F9A168094B994202D0204601F065
:10421C00EBF9E168064B994204D02046BDE810400A
:10422C0001F0E2B910BD00BF8C010020F4010020A8
:10423C005C02002010B50B4B0B4C0C4A20461A604C
:10424C0004210022FFF794FF04F1680001220921E8
:10425C00FFF78EFF04F1D0000222BDE810401221BE
:10426C00FFF786BFC40200208C010020E941000842
:10427C00014800F03EBA00BFCD020020014800F01A
:10428C0039BA00BFCD02002010B50446FFF7F0FF8D
:10429C00236A1BB1BDE81040FFF7F0BF044B23624B
:1042AC00044B1B68002BF5D1FFF7C4FFF2E700BFEE
:1042BC0001420008C40200202DE9F8430746884655
:1042CC0014460026D4E90195B9F1010905D52468F5
:1042DC00002CF7D13046BDE8F883AB89012B07D908
:1042EC00B5F90E30013303D029463846C047064392
:1042FC006835E9E7036A70B505460E4684680BB964
:10430C00FFF7C2FF636EDB0705D4A389980502D4BF
:10431C00A06D00F0EEF9A389190702D52369002BD3
:10432C0035D12146284600F015F980B34FF0FF3502
:10433C00636EDA0705D4A3899B0502D4A06D00F047
:10434C00D9F9284670BD002B04DAA2699A4217DC11
:10435C000A2915D023685A1C22601970A36816F814
:10436C00011F013BA3600029EDD1002B11DA22467D
:10437C000A21284600F0AFF80130D7D00A25D7E73C
:10438C002246284600F0A7F80130E7D1CEE7013EDF
:10439C00E4E723685A1C22600A221A70EEE7000038
:1043AC00024B01461868FFF7A5BF00BF180000209C
:1043BC000EB46FF0004110B500249DB01FAB0290FD
:1043CC000690079104910948094953F8042B05916B
:1043DC00006802A901931B9400F0E0FA029B1C7088
:1043EC001DB0BDE8104003B0704700BF180000209E
:1043FC000802FFFF0EB44FF4017270B500259DB09A
:10440C0021AC54F8046BADF814201B950290069067
:10441C00FBF796FE0B4B03900B934FF6FF73079035
:10442C000948ADF816303246234602A900680F95AC
:10443C001495019400F008FC1DB0BDE8704003B069
:10444C00704700BF7B4400081800002010B50C46D4
:10445C00B1F90E1000F0FEF80028ABBF636DA38914
:10446C001B1823F48053ACBF6365A38110BD0020DF
:10447C0070472DE9F0411F468B890546DB050C463C
:10448C00164605D502230022B1F90E1000F0D0F823
:10449C00A389324623F48053A38128463B46B4F9C2
:1044AC000E10BDE8F04100F0E7B810B50C46B1F9BC
:1044BC000E1000F0BDF8431CA38915BF606523F4F2
:1044CC00805343F48053A38118BFA38110BDB1F96D
:1044DC000E1000F09DB8F8B50E461446054618B1FE
:1044EC00036A0BB9FFF7D0FEA369A360A3891A076F
:1044FC0001D5236943B92146284600F02BF818B1A1
:10450C004FF0FF373846F8BD23682269F6B2981A87
:10451C0063693746834205DC2146284601F064F87E
:10452C000028EDD1A368013BA36023685A1C2260CC
:10453C001E706269431C9A4204D0A389DB07E1D543
:10454C000A2EDFD12146284601F04EF80028D9D09A
:10455C00D6E7000038B5294B054618680C4618B14B
:10456C00036A0BB9FFF790FEB4F90C30190722D48B
:10457C00DA0607D409222A6043F040034FF0FF30DB
:10458C00A38133E0580712D5616B41B104F14403A8
:10459C00994202D0284600F0AFF800236363A38948
:1045AC0023F02403A3810023636023692360A38980
:1045BC0043F00803A38123694BB9A38903F4207347
:1045CC00B3F5007F03D02146284601F05AF8B4F920
:1045DC000C3013F001020AD00022A2606269524230
:1045EC00A261226942B913F08000C5D138BD990788
:1045FC0058BF6269A260F4E70020F7E718000020BA
:10460C0003460244934200D1704703F8011BF9E7BB
:10461C0038B50023054D044608462B60FCF72BFBF0
:10462C00431C02D12B6803B1236038BDC8020020A3
:10463C0038B50446084611460022054D2A601A4634
:10464C00FCF73DFB431C02D12B6803B1236038BD42
:10465C00C802002038B50446084611460022054D14
:10466C002A601A46FCF7CEFA431C02D12B6803B120
:10467C00236038BDC802002038B5044608461146F0
:10468C000022054D2A601A46FCF7D9FA431C02D1C8
:10469C002B6803B1236038BDC8020020014B186899
:1046AC00704700BF1800002070B500260C4D0D4C53
:1046BC00641BA410A64209D101F01AFA00260A4D77
:1046CC000A4C641BA410A64205D170BD55F8043BDE
:1046DC0098470136EEE755F8043B98470136F2E768
:1046EC00A45D0008A45D0008A45D0008A85D000896
:1046FC00704770477047000038B50546002940D018
:10470C0051F8043C0C1F002BB8BFE41800F0DEF885
:10471C001C4A136833B9636014602846BDE83840FE
:10472C0000F0DAB8A34208D9206821188B4201BFE7
:10473C0019685B6809182160EDE71A465B680BB1D4
:10474C00A342FAD911685018A0420BD12068014439
:10475C00501883421160E0D118685B6808441060FF
:10476C005360DAE702D90C232B60D6E720682118B6
:10477C008B4201BF19685B68091821606360546043
:10478C00CBE738BDD402002070B50F4E0C46316813
:10479C00054611B901F05EF830602146284601F05B
:1047AC0059F8431C03D14FF0FF34204670BDC41C94
:1047BC0024F00304A042F8D0211A284601F04AF84C
:1047CC000130F2D1EFE700BFD00200202DE9F84311
:1047DC00CD1C25F0030508350C2D38BF0C25002DFC
:1047EC00064601DBA94204D90C2333600020BDE846
:1047FC00F883DFF8D48000F069F8D8F800301C4654
:10480C0044BB29463046FFF7BFFF431C044658D132
:10481C00D8F800402746002F43D1002C4BD02368FA
:10482C003946304604EB030901F014F8814542D1B6
:10483C00216830466D1A2946FFF7A6FF01303AD0A1
:10484C0023682B442360D8F800305A6862BBC8F840
:10485C0000700FE02268521B20D40B2A17D9611963
:10486C00A342256018BF5960636808BFC8F80010E0
:10487C0062514B60304600F02FF804F10B00231D01
:10488C0020F00700C21A1CBF1B1AA350AFE76268C6
:10489C00A3420CBFC8F800205A60EBE723466468BB
:1048AC00AEE73C467F68B6E71A465B68A342FBD18D
:1048BC0000235360DEE70C233046336000F00CF825
:1048CC0094E70560D6E700BFD40200200148FFF74B
:1048DC0010BF00BFCC0200200148FFF70BBF00BF88
:1048EC00CC0200202DE9F0471F468E688246BE425E
:1048FC000C4690460B682DD8B1F90C2012F4906F31
:10490C0026D06569096905EB4505A3EB010905EBA3
:10491C00D5757B1C4B446D109D4238BF1D4653050D
:10492C0027D52946FFF752FF064660B34A46216950
:10493C0000F0AEFFA38923F4906343F08003A381BE
:10494C0026614E4426603E466561A5EB0905A560CF
:10495C00BE4200D93E4632464146206800F03EFF3A
:10496C000020A3689B1BA360236833442360BDE82D
:10497C00F0872A4600F09AFF06460028E0D1504600
:10498C002169FFF7B9FE0C23CAF80030A3894FF058
:10499C00FF3043F04003A381E9E700002DE9F04F1D
:1049AC0098468B8907461B060D4614469DB010D5BC
:1049BC000B6973B94021FFF709FF2860286130B9F2
:1049CC000C233B604FF0FF301DB0BDE8F08F40234F
:1049DC006B610023099320238DF8293030234FF08D
:1049EC000109CDF80C80DFF898818DF82A30234628
:1049FC009A4613F8012B0AB1252AF9D1BAEB040B0C
:104A0C000BD05B46224629463846FFF76BFF013038
:104A1C0000F0A780099A5A4409929AF80030002BAA
:104A2C0000F09F8000234FF0FF32CDE905230AF1FF
:104A3C00010A049307938DF853301A9354460522B8
:104A4C0014F8011B4E4800F015FF049AD8B9D00693
:104A5C0044BF20238DF85330110744BF2B238DF80E
:104A6C0053309AF800302A2B15D0544600204FF0C2
:104A7C000A0C079A214611F8013B303B092B4BD904
:104A8C00B0B1079214E0A0EB080309FA03F3134347
:104A9C00A2460493D2E7039B191D1B680391002BBC
:104AAC00BBBF5B4242F0020207930793B8BF04926C
:104ABC0023782E2B0AD163782A2B32D1039B023414
:104ACC001A1D1B68039243EAE3730593DFF8B4A045
:104ADC0003225046217800F0CDFE38B14022049BD1
:104AEC00A0EB0A00824013430134049314F8011B19
:104AFC00062225488DF8281000F0BCFE002836D080
:104B0C00224B1BBB039B073323F007030833039390
:104B1C00099B334409936AE70C4601200CFB0232D3
:104B2C00A8E700234FF00A0C1946013405932046E0
:104B3C0010F8012B303A092A03D9002BC6D0059165
:104B4C00C4E7044601230CFB0121F0E703AB0093FF
:104B5C002A4638460E4B04A9AFF30080421C064689
:104B6C00D6D1AB895B063FF52DAF09982CE703AB8B
:104B7C0000932A463846064B04A900F04BFAEDE7A1
:104B8C004A5C0008505C0008545C000800000000FF
:104B9C00F148000838B54B1C144603D14FF0FF35D3
:104BAC00284638BD9389CDB223F020039381636BE3
:104BBC0052688BB1A36B934208DD23685A1E2260A6
:104BCC0003F8015C636801336360E9E7214600F098
:104BDC00CDFD0028F1D0E1E72169236851B199425C
:104BEC0008D213F8011CA94204D1013B0132236005
:104BFC006260D5E7C4E90F3204F144036363032315
:104C0C00A363234603F8465F23600123DCE710B55A
:104C1C000C46496B69B104F14403994201D0FFF78A
:104C2C006BFD0020236C6063636013B1E36B236046
:104C3C0010BD23694FF0FF30236000236360A3890C
:104C4C0043F02003A381F3E72DE9F04F0C4600213C
:104C5C000646ADF5237DCDE94411AB490DF10408B1
:104C6C00A091AA49AA4FCDF81881A191009392F86E
:104C7C000090B9F1000F00F0598117F80930551C5C
:104C8C0013F0080319D06368002B0FDD23681A7822
:104C9C00BA5C120701D42A46E9E7459A013301327E
:104CAC00459262682360013A6260ECE72146304627
:104CBC00A19B98470028E9D0EDE7B9F1250F40F00A
:104CCC0086804193439353782A2B04BF1023951C61
:104CDC004FF00A0208BF4193AA461AF8011BA1F132
:104CEC003003092B1ED9DFF82CB20322584600F0F2
:104CFC00C1FD38B101235546419AA0EB0B0083400E
:104D0C001343419315F8013B782B06D8572B10D839
:104D1C00252B5CD056D8002B74D0032347930A2341
:104D2C00429387E0439B554602FB03113039439174
:104D3C00D2E7A3F15802202AEFD801A151F822F0B2
:104D4C001F4E0008274D0008274D0008794E00081B
:104D5C00274D0008274D0008274D0008274D000857
:104D6C00274D0008274D0008274D00088F4E0008DE
:104D7C00754E0008D74D0008D74D0008D74D0008D8
:104D8C00274D0008314E0008274D0008274D00081C
:104D9C00274D0008274D00089F4E0008394E00088B
:104DAC00174E0008274D0008274D00089B4E0008A1
:104DBC00274D0008754E0008274D0008274D0008A8
:104DCC001F4E0008453B022BA7D8052331E0636832
:104DDC00002B0DDD23681A784A4540F0A78001337B
:104DEC0062682360459B013A01336260459352E748
:104DFC0021463046A19B98470028EBD044980028C8
:104E0C0040F08C804FF0FF308CE0419A42F0200251
:104E1C004192419A42F40072419210226E2B4292BE
:104E2C0002D905E000234293032302E008234293B6
:104E3C00042347936368002B39DD419B590604D446
:104E4C0023681A78BA5C120738D4479B022B47DCCC
:104E5C006B462246304641A900F0FAF9012865D08C
:104E6C0002287FF418AFC9E70A22D7E72946404643
:104E7C0000F043FC419B054643F040034193012362
:104E8C00D7E7419B43F0400341930023D1E7022332
:104E9C00CFE74198C3063FF5FEAE009B459A191D1E
:104EAC0000911B68C0074CBF1A801A60F3E62146BC
:104EBC003046A19B98470028BFD09FE7459A013206
:104ECC0045926268013A002A626002DD0133236078
:104EDC00B6E721463046A19B98470028B0D08DE715
:104EEC00042B06DC6B462246304641A900F00AFA38
:104EFC00B4E7094B002B3FF4CEAE6B46224630464E
:104F0C0041A9AFF30080A9E7A14B00081B4C000896
:104F1C00995C0008505C000800000000A3895B0647
:104F2C003FF570AF0DF5237DBDE8F08F4498F9E7A0
:104F3C002DE9F047164698468A680B690746934256
:104F4C00B8BF1346336091F843200C46DDF820902F
:104F5C000AB1013333602368990642BF33680233C8
:104F6C003360256815F0060506D104F1190AE368CB
:104F7C0032689B1AAB422BDC94F843302268003B1E
:104F8C0018BF0123920630D44146384604F143023F
:104F9C00C847013023D02368226903F00603042B91
:104FAC0014BF002533684FF0000608BFE56804F114
:104FBC001A0408BFED1A54F8123C08BF25EAE5752F
:104FCC009342C4BF9B1AED18B5421AD1002008E0D9
:104FDC000123524641463846C847013003D14FF0B1
:104FEC00FF30BDE8F0870135C1E73020E11881F8CA
:104FFC0043005A1C94F845102244023382F84310A3
:10500C00C2E70123224641463846C8470130E6D064
:10501C000136D9E72DE9FF470F7E9146782F804660
:10502C000C469A460C9E01F1430207D8622F0AD80F
:10503C00002F00F0D180582F00F0B88004F1420608
:10504C0084F842703AE0A7F16303152BF6D801A15E
:10505C0051F823F0B9500008CD5000084950000811
:10506C00495000084950000849500008CD5000082C
:10507C0049500008495000084950000849500008A0
:10508C00CB510008F7500008855100084950000822
:10509C0049500008ED51000849500008F75000082D
:1050AC0049500008495000088D51000833681A1DFA
:1050BC001B68326004F1420684F8423001239CE004
:1050CC0033682068191D3160060601D51D6803E0A0
:1050DC004506FBD5B3F90050002D03DA2D236D42A4
:1050EC0084F843300A23584811E0216833680806D5
:1050FC0053F8045B02D4490648BFADB26F2F33603E
:10510C0014BF0A2308235048002184F84310666812
:10511C00002EA66005DB21682E4321F004012160DE
:10512C004BD01646B5FBF3F103FB1157C75D06F8E0
:10513C00017D2F46BB420D46F4D9082B0BD12368B9
:10514C00DF0708D5236961689942DEBF302306F872
:10515C00013C06F1FF36921B22614B46214640462C
:10516C00CDF800A003AAFFF7E3FE01304AD14FF0BF
:10517C00FF3004B0BDE8F087236843F020032360C0
:10518C007827324884F84570236831681F0651F837
:10519C00045B02D45F0648BFADB23160D90744BF8F
:1051AC0043F0200323601DB11023ADE72648E9E747
:1051BC00236823F020032360F6E71646BDE7336827
:1051CC002568181D616930602E061B6801D51960B1
:1051DC0002E06806FBD51980002316462361BCE764
:1051EC00336800211A1D32601E686268304600F078
:1051FC0041FB08B1801B606063682361002384F865
:10520C004330AAE73246494640462369D04701302D
:10521C00ADD023689B0713D4E068039B9842B8BFBA
:10522C001846A6E70123324649464046D04701308E
:10523C009DD00135E36803995B1AAB42F2DCEBE7D6
:10524C00002504F11906F5E75B5C00086C5C0008AE
:10525C002DE9F84315468A6880460C4632B98A69AE
:10526C00002A14BF4FF0FF3201228A600027226807
:10527C00DFF88C90D1065FBF1A68111D1960166893
:10528C00A06988B1012807D12B681A7863699B5CE7
:10529C0053B9002F31D022E0022820D12B681B7883
:1052AC0019F803301B071AD423680137DA065EBFDE
:1052BC002B681B7806F8013B2A686B6801322A6060
:1052CC00A268013B013A6B60A26042B1002BD7DCB3
:1052DC0029464046D4F8803198470028D0D023681E
:1052EC0013F0100305D1E2680132E260A26902B149
:1052FC003370002023693B442361BDE8F88300BF71
:10530C00995C00082DE9F04F0C469846724B87B01B
:10531C008246164693E8070003AB83E807006F4B01
:10532C00A1696F4A2746032908BF1A46A368019250
:10533C005A1EB2F5AE7F81BF6FF4AE7503EB050953
:10534C0040F25D13A36057F81C3B98BF4FF0000967
:10535C003D464FF0000B43F450632360316803ABC0
:10536C000222097853F82B0000F084FA28B3BBF121
:10537C00010F59D162682AB908212268616042F490
:10538C0000722260226822F4A0622260A268511E80
:10539C00A16092B13268511C3160127805F8012B72
:1053AC007268013A002A726007DC31465046D4F824
:1053BC0080219047002840F085800BF1010BBBF158
:1053CC00030FCBD163680BB90A236360636845494B
:1053DC006069C91A00F091F94FF0000BA3682268BC
:1053EC00002B3DD03168606991F800C010F80C00BA
:1053FC00002835D0BCF1300F24D1100522D50BF18B
:10540C00010BB9F1000F03D0013309F1FF39A3608F
:10541C007368013B002B73601BDD33680133336011
:10542C00A368013BA360D9E7BBF1020FAED12268A0
:10543C0002F4C061B1F5007FC4D1102142F4807236
:10544C006160A2E722F4106222600B7805F8013B40
:10545C00DEE731465046D4F8803198470028DFD03B
:10546C002368D9050DD5BD4209D915F8011C324662
:10547C005046D4F87C3105F1FF3998474D46BD4272
:10548C0028D0226812F0100213D12A7039466368B2
:10549C005046019EB047D8F8003021681A1DC8F854
:1054AC00002011F0200F1B680FD01860E368013347
:1054BC00E36000202369ED1B5D442B44236107B09E
:1054CC00BDE8F08F4FF0000BCAE7CA074CBF18803D
:1054DC001860EBE70120F2E7005C0008095A0008AD
:1054EC00E95A00088D5C0008B1F90C20F8B51607D4
:1054FC0005460C4654D44B68002B02DC0B6C002B7D
:10550C0048DDE66A002E45D0002312F480522F6845
:10551C00216A2B6030D0626DA389590705D5636869
:10552C00D21A636B0BB1236CD21A00232846E66A9D
:10553C00216AB047431CA38906D129681D292BD8A1
:10554C00284ACA40D60727D5002262602269D904AE
:10555C00226004D5421C01D12B6803B96065616BD4
:10556C002F60B9B104F14403994202D02846FFF7E9
:10557C00C3F8002363630DE001232846B0470246BD
:10558C00501CC9D12B68002BC6D01D2B01D0162B5B
:10559C001DD12F60002021E043F040031BB21AE024
:1055AC000F69002FF6D0930718BF00230E6808BFB1
:1055BC004B69F61B0F608B60002EEBDD33463A46D1
:1055CC002846216AD4F828C0E047002807DCB4F943
:1055DC000C3043F040034FF0FF30A381F8BD07447B
:1055EC00361AE9E70100402038B50B6905460C4630
:1055FC0013B90025284638BD18B1036A0BB9FEF75C
:10560C0043FEB4F90C30002BF3D0626ED00704D4F7
:10561C00990502D4A06DFFF76CF828462146FFF7D8
:10562C0063FF636E0546DA07E4D4A3899B05E1D4D6
:10563C00A06DFFF75FF8DDE770B50C46B1F90E1001
:10564C00154600291E4696B00CDAA389002113F0EA
:10565C00800F14BF40234FF48063002031602B6017
:10566C0016B070BD6A4600F0D3F80028EDDB019946
:10567C0001F47041A1F50053594259414FF4806334
:10568C00EBE78B89F7B59D0706460C4607D504F169
:10569C004703236023610123636103B0F0BD6A46B5
:1056AC0001ABFFF7C9FF009F054639463046FFF7AF
:1056BC008DF848B9B4F90C309A05EED423F00303F5
:1056CC0043F00203A381E2E7A389C4E9040743F092
:1056DC008003A381019B20605BB13046B4F90E10AE
:1056EC0000F0A8F828B1A38923F0030343F00103C9
:1056FC00A381A3891D43A581CFE770B50B78044620
:10570C005E2B0BBF4B784A1C8A1C002108BF012161
:10571C00013804F1FF0500F8011FA842FBD10BB9B9
:10572C00501E70BD81F001011046E154024612F882
:10573C00015B2D2D05D05D2D16D0002DF1D02B4603
:10574C00F2E746785D2EFAD0B342F8DC1A46023006
:10575C0001329642A154FBDCF21A013AB342A8BFC3
:10576C0000225D1CAB18E1E71046DAE72DE9F041A9
:10577C000C46496B04F1440399421BD14FF48061F0
:10578C00FFF724F818B94FF0FF30BDE8F0814FF463
:10579C008063A36394F84630606380F8FF3394F819
:1057AC00453000F2FD30437094F8443003702060B3
:1057BC000020EAE7A66B77003A4600F077F805463A
:1057CC000028E0D000EB060801463246404600F0C7
:1057DC005FF8C4E90D57C4F80080E9E7884210B5BA
:1057EC0001EB020402D98442234607D8431EA1428E
:1057FC0008D011F8012B03F8012FF8E701460244F9
:10580C008A4200D110BD13F8014D02F8014DF7E7A3
:10581C0038B50023064D0446084611462B60FBF7AD
:10582C0035FA431C02D12B6803B1236038BD00BF8D
:10583C00C802002038B50023054D044608462B60ED
:10584C00FBF733FA431C02D12B6803B1236038BD3C
:10585C00C802002038B50023054D044608462B60CD
:10586C00FBF73AFA431C02D12B6803B1236038BD15
:10587C00C8020020034610B5C9B202449342184630
:10588C0001D1002003E0047801338C42F6D110BD25
:10589C000A44914200F1FF3300D1704710B511F862
:1058AC00014B914203F8014FF9D110BD2DE9F041A4
:1058BC00074614460D4621B91146BDE8F041FEF7E6
:1058CC0085BF2AB9FEF718FF25462846BDE8F081AA
:1058DC0000F006F98442064602D8B4EB500FF4D817
:1058EC0021463846FEF772FF804608B94546ECE77C
:1058FC00B4422246294628BF3246FFF7C9FF294643
:10590C003846FEF7F9FEF1E7242B2DE9F0478646E1
:10591C00904601D8012B06D1FEF7C0FE162303607A
:10592C000020BDE8F0870D4633482A4615F8014B98
:10593C00065D16F00806F8D12D2C10D101262C7816
:10594C00951C33F0100215D1302C0DD12A7802F0B1
:10595C00DF02582A08D16C78023510230AE02B2C70
:10596C0004BF2C78951CECE7002BF6D1302C14BF1F
:10597C000A230823002206F1004C0CF1FF3CBCFB6F
:10598C00F3F9104603FB19CAA4F13007092F0FD8FD
:10599C003C46A3421BDD571C07D0814514D301D1D3
:1059AC00A24511DB012200FB034015F8014BEBE78C
:1059BC00A4F14107192F01D8373CEAE7A4F161079C
:1059CC00192F04D8573CE4E74FF0FF32EDE7531C96
:1059DC0008D122236046CEF80030B8F1000FA0D0D9
:1059EC00691E06E006B14042B8F1000F99D0002ABA
:1059FC00F6D1C8F8001094E7995C0008FFF784BF53
:105A0C002DE9F04386460D46334E284615F8014BDA
:105A1C00375D17F00807F8D12D2C10D101272C7801
:105A2C00851C33F0100015D1302C0DD1287800F0E6
:105A3C00DF00582808D16C78023510230AE02B2C93
:105A4C0004BF2C78851CECE7002BF6D1302C14BF4E
:105A5C000A2308234FF0FF38B8FBF3F8002603FBAA
:105A6C0008F930466FEA0909A4F1300CBCF1090FB2
:105A7C0010D86446A3421EDDB6F1FF3F07D0804527
:105A8C0016D301D1A14513DB012600FB034015F809
:105A9C00014BE9E7A4F1410CBCF1190F01D8373CDB
:105AAC00E8E7A4F1610CBCF1190F04D8573CE1E70D
:105ABC004FF0FF36EBE7731C06D122233046CEF8AD
:105ACC00003032B9BDE8F08307B14042002AF9D06A
